:100000000C9405030C9422030C9422030C942203F9
:100010000C9422030C9422030C9422030C942203CC
:100020000C9422030C9422030C94D21E0C94A41F53
:100030000C9422030C9422030C9422030C942203AC
:100040000C9422030C94E5120C9422030C942203CA
:100050000C9422030C94771A0C9422030C94220320
:100060000C9422030C9422030C9422030C9422037C
:100070000C9422030C9422030C9422030C9422036C
:100080000C9422030C9422030C9422030C9422035C
:100090000C9422030C9422030C9422030C9422034C
:1000A0000C9422030C9422030C942203C306C3066F
:1000B000EF06EF0650076E075A085A087307E9075C
:1000C000FA07FA078614F8148E1458145C14921464
:1000D0005F149514A0146A14EE146E14A414721410
:1000E000A814D2147614AC14DC147C14B214BC140E
:1000F0006314991466149C148114B714C814E8147A
:10010000EA1454148A1401152218281816181C18F9
:100110002E1834183A180C2033202B2133202B2191
:100120007F20A2202B21F92008213F003C0029003C
:100130004200450048000000000041003E003B0036
:100140004400470000000000000040003D003A006D
:1001500043004600000000000000220017000A00D3
:1001600005002E0073282B24000021001500092211
:1001700019000000000029214C3820000800070069
:10018000060031004A422C0000001F001A00160031
:100190001B003500000034344B421E0014000400E4
:1001A0001D00737C4D4128310000460039002B00B2
:1001B000E100000000002A004E41000000000000A5
:1001C0002D0023001C000B001100000000000000A7
:1001D0000000240018000D32100000000000000094
:1001E0002F0025000C000E003600B200007C00003D
:1001F00000000000000000000000000000000000FF
:100200003000260012000F00370000000000000040
:100210004C002700130033003800000000000000ED
:10022000000047004C003400E50000000000000022
:1002300000000000000000000000000000000000BE
:1002400000000000000000000000000000000000AE
:10025000000000000000000000003E00D400D000BC
:10026000DC00DF000100010000003D00D300CE00F3
:10027000DA0000000000010001003C00D200CD00C7
:10028000D900DE000100010000003B00D100CF00DA
:10029000DB00DD000000010001003A00000000006A
:1002A0000000000001000100000044000000000008
:1002B000000000000000010001000000000000003C
:1002C000AA003F004A0050007A0000000000000031
:1002D000000040004E0051007D00000000000000C2
:1002E000A90041004B0052007C000000000000000B
:1002F00000000000000000000000000000000000FE
:10030000A80042004D004F007B00000000000000EC
:10031000000043000000000000000000000000009A
:100320000000450000000000000000000000000088
:1003300000000000000000000000000000000000BD
:1003400000000000000000000000000000000000AD
:10035000000000000000000000000000000000009D
:10036000000000000100010000000000000000008B
:10037000000000000000010001000000000000007B
:10038000000000000100010000000000000000006B
:10039000000000000000010001000000000000005B
:1003A000000000000100010000000000000000004B
:1003B000000000000000010001000000000000003B
:1003C00058000000000000000000000000000000D5
:1003D000000053005F005C005900000000000000B6
:1003E0006200540060005D005A0000000000000040
:1003F00000000000000000000000000000000000FD
:100400006700550061005E005B0000000000000016
:100410000000560057008500630000000000000047
:1004200000000000000000000000000000000000CC
:100430000000000000010204060A0F17202C3A4AAF
:100440005D71879DB3C7DAE9F5FCFFFCF5E9DAC712
:10045000B39D87715D4A3A2C20170F0A06040201EA
:100460000000000000000000000048034B0069008D
:100470006E006500730069007300200043006C008B
:10048000610073007300690063002F004100640085
:10049000760061006E0074006100670065002F0047
:1004A00043006F006E0074006F00750072006500FD
:1004B00064000000080351004D004B0000000403DD
:1004C000090409023B00020100A0FA09040000012E
:1004D00003010100092111010001224400070581E7
:1004E00003080001090401000103000000092111B3
:1004F00001000122B600070582032000011201005D
:100500000200000008EDFE6060030001020001052A
:10051000010902A10185020901A1000509190129AA
:1005200008150025019508750181020501093009AA
:10053000311581257F9502750881060938158125B9
:100540007F950175088106050C0A38021581257F03
:10055000950175088106C0C005010980A1018503C8
:1005600019012AB700150126B70095017510810001
:10057000C0050C0901A101850419012AA002150179
:1005800026A002950175108100C005010906A10190
:100590008506050719E029E715002501950875016D
:1005A00081020507190029EF1500250195F0750155
:1005B000810205081901290595057501910295012A
:1005C00075039101C005010906A101050719E0297C
:1005D000E7150025019508750181029501750881CF
:1005E000010507190029FF150026FF00950675086B
:1005F00081000508190129051500250195057501DA
:100600009102950175039101C00011241FBECFEF27
:10061000DAE0DEBFCDBF11E0A0E0B1E0E0E5F4E458
:1006200002C005900D92AA38B107D9F722E0AAE8D6
:10063000B1E001C01D92A53EB207E1F70E94AD12E4
:100640000C9426220C940000509A519A529A539A74
:1006500026982E9A22982A9A23982B9A2198299A9A
:1006600087988F9A86988E9A85988D9A84988C9A76
:1006700024982C9A25982D9A8BB1807F8BB9089558
:100680000F931F93CF93DF93EC0110E000E08BB149
:10069000812B8BB90E94391283B11C3049F48295A9
:1006A00081701D9902C090E001C092E08C6F2EC055
:1006B00086FB222720F91A9902C080E001C082E05F
:1006C000822B1B9902C020E001C024E0822B1999E3
:1006D00002C090E001C098E0982B2FB1822F881FB4
:1006E0008827881F8295807F892B7E9902C020E011
:1006F00001C020E2822B7D9902C020E001C020E4ED
:10070000822B7C9902C090E001C090E8892B8095F3
:100710009BB1907F9BB991E02881281301C090E0A4
:10072000092B89931F5F103109F0B1CF802FDF9122
:10073000CF911F910F9108958D32910531F160F4A1
:100740008832910530F48E319105F8F40497D0F495
:1007500017C08A97A9F419C08C349105B1F030F410
:100760008333910591F0C79759F40FC0853E9105E9
:1007700061F08D3222E0920741F0813E910529F02F
:1007800080E0089582E00E94640D81E00895833046
:10079000C8F46031B8F44830A8F4E62FF0E090E1F6
:1007A000899FE00DF11D112483E0EE0FFF1F8A9554
:1007B000E1F7E40FF11DEE0FFF1FE65DFE4F85919F
:1007C0009491089581E090E008950E94C7030895F0
:1007D00081E0089581E008950E94EA0308950E944F
:1007E000EC0308950E94EA03089508950E94F5031A
:1007F0000895A6E0B0E0EFEFF3E00C948221498386
:100800005A839E833091910189819A81311115C05B
:100810003E81332359F0222349F00E941F0A182FEA
:10082000682F89819A810E94FB0903C00E940D0AEA
:10083000182F69817A81812F04C00E941F0A698163
:100840007A810E9434112696E3E00C949E21FC01EB
:10085000262F4081518162817381848195810E941C
:10086000F9030895CF93DF93EC0161E00E94270420
:10087000BE010E94EF03DF91CF910895CF93DF93E4
:10088000EC0160E00E942704BE010E94F603DF91A4
:10089000CF91089581E008950E944A040895CF936E
:1008A000C82F0E94D2088C2F0E944C042FEF84E3A3
:1008B0009CE0215080409040E1F700C00000CF91C3
:1008C000089581E00E944F040E949D1A089580E0DF
:1008D0000E944F040E94AE1A08950F931F93CF9366
:1008E000DF938C0161E00E942704EC01B8010E94B3
:1008F000F203882309F449C0B801CE010E942C13E9
:10090000882309F442C0B801CE010E940A18882346
:10091000E1F1B801CE010E9430148823B1F1B80191
:10092000CE010E940614882381F1F8018581882375
:1009300041F1C3308CE7D807D1F040F4C115FCE792
:10094000DF0791F0C130DC47A1F01BC0CB35ECE7ED
:10095000DE07A9F0CC35FCE7DF0771F0CA35DC47CC
:1009600081F40E94720E0DC00E9461040EC00E94AC
:100970007A0E0E94670409C00E94680E02C00E949D
:10098000760EC8010E94E80301C080E0DF91CF919C
:100990001F910F9108950E94141A08950E94060550
:1009A0000E941D1A089581E00895809580FF02C07D
:1009B0005C9A01C05C9881FF02C0769A01C076986B
:1009C00082FF02C0469A01C0469883FF02C05F9A28
:1009D00008955F980895CF93DF93D82F0E94D30492
:1009E000C82F882319F08D2F0E94D5048C2FDF91FA
:1009F000CF910895549A5C9A6E9A769A3E9A469A46
:100A0000579A5F9A08950E94EB0408950E94521825
:100A10000E9403050895CF930E945218C82F809119
:100A20008C01C81779F0C0938C010E945C1A609306
:100A30008D0170938E0180938F01909390018C2F84
:100A40000E940305CF910895ADE0B0E0EAE2F5E041
:100A50000C948321488759876A877B878C879D8779
:100A600091110E94710DCE01019627E0FC011192B7
:100A70002A95E9F726E0FE013896DC0101900D92F7
:100A80002A95E1F72D8121110AC029813A814B81F4
:100A90005C816D817E818F810E94BB0C04C00E94AD
:100AA00032048111F2CF2D96E2E00C949F21FC01DB
:100AB0002481213021F4808191810E94510A08957E
:100AC000662319F00E94A01502C00E94FB150E9427
:100AD00072160895CF93882309F488C0C82F8238EE
:100AE000A1F40E945F1881FD81C089E30E947A19F8
:100AF0000E94FB0D2FEF87EE93E021508040904045
:100B0000E1F700C0000089E315C08338C1F40E94FA
:100B10005F1880FD6BC083E50E947A190E94FB0D6F
:100B20002FEF81EE94E0215080409040E1F700C02B
:100B3000000083E50E9491190E94FB0D57C0843884
:100B4000A1F40E945F1882FD51C087E40E947A19C7
:100B50000E94FB0D2FEF81EE94E0215080409040E9
:100B6000E1F700C0000087E4E5CF8CEF8C0F813AFD
:100B700070F48C2F0E94F118882329F08C2F0E948A
:100B800091190E94FB0D8C2F0E947A19D5CF80E21B
:100B90008C0F883048F4C77081E001C0880FCA9577
:100BA000EAF70E94540DC8CFEBE5EC0FE33040F4B8
:100BB000F0E0E35BFE4F808190E00E94891816C050
:100BC000E8E5EC0FEB3150F4F0E0EE0FFF1FE95ECB
:100BD000FE4F808191810E94AE1808C083E38C0F84
:100BE000833120F461E08C2F0E946005CF9108953D
:100BF000882309F456C0823859F40E945F1881FF97
:100C000050C089E30E947A190E94FB0D89E30CC051
:100C1000833879F40E945F1880FF43C083E50E9407
:100C20007A190E94FB0D83E50E9491190E94FB0D29
:100C30000895843859F40E945F1882FF32C087E417
:100C40000E947A190E94FB0D87E4EECF9CEF980F6B
:100C5000913A50F390E2980F983050F4877091E0F9
:100C600001C0990F8A95EAF7892F0E945A0DDECFAD
:100C70009BE5980F933028F480E090E00E9489185B
:100C8000089598E5980F9B3128F480E090E00E9449
:100C9000AE18089593E3980F933118F460E00E9422
:100CA000600508951F93CF93DF93182FEB010E94E7
:100CB0006A05209741F08FE99FE00197F1F700C0A6
:100CC00000002197F6CF812F0E94F805DF91CF9188
:100CD0001F910895893319F060E070E002C060E56B
:100CE00070E00E9452060895882321F00E94540D5E
:100CF0000E94FB0D0895882321F00E945A0D0E9446
:100D0000FB0D0895A0E0B0E0E8E8F6E00C947D214A
:100D10007C01162FC72FFC01D581068102950F702B
:100D20000E944A0D8823F9F0DD23E9F08C2F807FA3
:100D3000803461F080E2810F8830A8F08C2F807EB3
:100D4000803221F4123078F0002369F08091B302F0
:100D500082FF09C082E00E943C0E0E944A0D91E091
:100D6000D82ED92601C0D12CCC2EC2948FE0C82217
:100D70008C2D90E08C30910508F09CC1FC01EA5A62
:100D8000FF4F0C946D218C2F807FCF70882311F042
:100D9000C295C07FDD2399F0CC2309F477C180E2AE
:100DA000810F883010F0111104C08C2F0E94540D57
:100DB00003C08C2F0E94640D0E94FB0D67C1812F20
:100DC0000E94F805CC2309F475C180E2810F8830B8
:100DD00038F1112329F18C2F0E946A0D24C08C2F29
:100DE000807FCF70803211F0C295C07F112319F03F
:100DF000113099F13CC08091B30282FD17C0DD2310
:100E000049F0CC2329F08C2F0E94540D0E94FB0D39
:100E100080E03DC180E00E94F805CC2309F44AC17E
:100E20008C2F0E945A0D0E94FB0D44C1DD2349F016
:100E3000002309F1013009F03DC18C2F0E947E0D85
:100E400039C1011137C18C2F0E947B068C2F0E9463
:100E50008A0D8C2F0E940F0E2DC1DD2321F003304F
:100E600008F028C108C0023008F024C115C0DD23F5
:100E700031F001110BC18C2F0E9474061BC100239D
:100E800059F0193309F013C1FFEF27EE83E0F15059
:100E900020408040E1F709C18C2F0E947B060AC1E7
:100EA0008C2F86958695837019F0813061F002C190
:100EB000DD2321F0812F9C2F937002C080E090E011
:100EC0000E948918FFC0DD2321F0812F9C2F937091
:100ED00002C080E090E00E94AE18F4C06D2F812F18
:100EE0000E946005EFC08C2F8370B1F5D111E6C070
:100EF000412F429546954770440F440F812F8F70C4
:100F000090E09C01042E02C0220F331F0A94E2F7E6
:100F100014FF0AC08FE090E002C0880F991F4A9525
:100F2000E2F78095909502C080E090E0C695C69566
:100F3000C370822B932BC23049F058F4C13019F0A2
:100F40000E942E09BBC00E942509B8C00E94370923
:100F5000B5C00E942209B2C0DD2319F08C2F817028
:100F600001C08695882309F4A9C0412F4295469572
:100F70004770440F440F812F8F7090E09C01042E26
:100F800002C0220F331F0A94E2F714FF0AC08FE059
:100F900090E002C0880F991F4A95E2F780959095DE
:100FA00002C080E090E0C695C695C370822B932B5B
:100FB000C23049F058F4C13019F00E9496097EC041
:100FC0000E948D097BC00E949F0978C00E9443093E
:100FD00075C0CF70DD2339F08C2F0E945B09812F03
:100FE0000E9474066BC0812F0E947B068C2F0E948A
:100FF0006B0964C0123F21F128F4103F41F0113F0A
:10100000C1F040C0133F19F1143F79F03BC0DD231C
:1010100041F0023008F04EC08C2F8F710E947D0984
:1010200049C0033008F046C0F7CF8091B30282FD7B
:1010300018C0DD2339F08C2F8F710E945B093AC0F4
:10104000DD23C9F38C2F8F710E946B0933C0DD2320
:1010500029F08C2F8F710E944F092CC00E944A09E1
:1010600029C0DD2331F063E08C2F8F710E941E0EAA
:1010700021C081E00E943C0E0230E0F082E00E943C
:101080003C0E18C0DD2331F00023A9F2812F0E940D
:101090006A0510C00023B1F2193349F49FEFE7EE5F
:1010A000F3E09150E040F040E1F700C00000812FF4
:1010B0000E94F80588EF8C0D843020F40E945218AD
:1010C0000E940305DD2089F00E94460D80FD0DC0C1
:1010D000F70115820E94400D0E945B09C7010E9422
:1010E00092080E94400D0E946B09CDB7DEB7E8E080
:1010F0000C9499210F931F93CF93DF93EC01688198
:1011000079818D810E945C0A8C010E94A8090E944D
:101110001309B801CE010E948206DF91CF911F9181
:101120000F910895CF93DF93FC0124812223D1F006
:10113000EC010E946D0481110FC00E944A0D8823AA
:1011400089F08D81882371F08091B30282FF0AC0FB
:1011500082E00E943C0E06C0CE010E947A08CE01B9
:101160000E943E04DF91CF910895882321F00E94D0
:101170006A0D0E94FB0D089580E090E00E9489189E
:1011800080E090E00E94AE180E94710D0E94FB0D5D
:101190000E9491160E94721608950E94A8190E943A
:1011A000BC0808950E94610D0E94CD080895929593
:1011B0009F70963079F010F4925001C09A5092309E
:1011C00068F4803F69F018F4883E40F409C0843F19
:1011D00029F406C0883E20F0813F11F080E0089598
:1011E00081E00895FC012481222339F080819181DE
:1011F0000E94510A0E94D708089580E00895A6E051
:10120000B0E0E5E0F9E00C9483212696E2E00C944E
:101210009F21A7E0B0E0EFE0F9E00C94832127964E
:10122000E2E00C949F21089508950E941409089506
:101230000E94150908950E9418099093D501809382
:10124000D40108950E941B0908952091D401309182
:10125000D501822B932B0E941B0908952091D40164
:101260003091D501822393230E941B090895209178
:10127000D4013091D501822793270E941B0908953C
:101280000E94140908950E9440099093D30180930D
:10129000D201089580E090E00E944309089521E082
:1012A00030E0A90102C0440F551F8A95E2F7CA0138
:1012B0000E944309089521E030E002C0220F331F4D
:1012C0008A95E2F78091D2019091D301822B932BE2
:1012D0000E944309089521E030E002C0220F331F2D
:1012E0008A95E2F7209530958091D2019091D301B3
:1012F000822393230E944309089521E030E002C035
:10130000220F331F8A95E2F78091D2019091D30189
:10131000822793270E94430908952091D20130919A
:10132000D301822B932B0E94430908952091D2016F
:101330003091D301822393230E9443090895209181
:10134000D2013091D301822793270E944309089547
:101350000895962F9770A1E001C0AA0F9A95EAF719
:1013600093E0769567959A95E1F7660F771F660F7C
:10137000771FFA01E60FF71F40E050E0682F70E09A
:1013800090819B01042E02C0369527950A94E2F7BE
:101390002170219529272A23292721934F5F5F4F09
:1013A0004430510569F70895FB01782F777023E0E9
:1013B000969587952A95E1F7880F991F880F991FB1
:1013C000E80FF91F40E050E080E0219130E0072E67
:1013D00002C0369527950A94E2F721703327042E30
:1013E00001C0220F0A94EAF7822B4F5F5F4F44300F
:1013F000510559F70895282F903170F4883060F422
:10140000862F622F70E028E0929F600D711D1124DD
:1014100042E951E00E94A9090895903170F48830A2
:1014200060F4292F90E062E971E038E0239F800D9D
:10143000911D11240E94D409089580E00895A0E030
:10144000B0E0E5E2FAE00C947C217C010091D2014D
:101450001091D3018091D4019091D501082B192BC3
:10146000CFE0D0E0CC24C394D12CC6010C2E02C016
:10147000880F991F0A94E2F780239123892B21F486
:10148000219798F7B12C07C0BC2EB7018C2F0E9472
:1014900040110197A9F38B2DCDB7DEB7E9E00C948D
:1014A0009821CF93DF93EC010E941F0ABE010E9496
:1014B0004011DF91CF9108951F93CF93DF93EB01FC
:1014C00090919101992321F0CB010E94510A13C000
:1014D000882349F0CB010E941F0A182F682FCE01E4
:1014E0000E94FB0904C0CB010E940D0A182FBE0107
:1014F000812F0E944011DF91CF911F9108951F937A
:10150000CF93DF93C091D60117E08091D701C81720
:10151000A1F0D0E01C9FF0011D9FF00D1124E852B6
:10152000FE4F2081318142815381648175818681A2
:101530000E9409092196C770E8CFDF91CF911F91D2
:1015400008952091100230911102409112025091A1
:1015500013026091140270911502809116020E948C
:1015600009090895CF93DF938091160282958F70B9
:1015700009F04EC080911502882309F449C080917A
:10158000D6014091D7015091110260911002C09193
:101590001202D091130277E08417D1F190E0789F86
:1015A000F001799FF00D1124DF01A852BE4F14966F
:1015B0002C911497222349F111962C911197251300
:1015C00024C02C91261321C015962C91159721111A
:1015D0001CC012962D913C9113972C1B3D0B2F3A5A
:1015E000310598F4809116028F7080618093160205
:1015F000E252FE4F80818F708061808380E192E0B3
:101600000E9492080E947F0A03C001968770C4CF8F
:10161000DF91CF9108952091D6019091D70157E0A5
:101620002917A9F030E0529FF001539FF00D1124CB
:10163000E852FE4F7181761306C07081781303C0A3
:101640007581741306C02F5F3F4F2770E9CF80E08C
:10165000089581E00895A4E1B0E0E1E3FBE00C949B
:1016600079218C0186E0F801DE011F9601900D9230
:101670008A95E1F7D80114968C9114971596EC9001
:1016800090E1A92E92E0B92E90911402911118C008
:10169000882309F469C1EE20D9F1C8010E94F2083B
:1016A000F82E8823A9F187E0F801D50101900D9269
:1016B0008A95E1F7C5010E9457050E94B20A51C1FF
:1016C000F801C080D18082809380F0901502209133
:1016D000120230911302A401421B530BFF2009F4A4
:1016E0000BC14F3A510508F0B7C0882309F43EC139
:1016F00080911602282F207F90911102222361F001
:101700009D1509F46DC0C8010E94F20881117BC0CB
:10171000C8010E94920828C19D1116C09091100224
:101720009C1112C0E11010C08F708061809316026E
:101730000E94A10A80E192E00E9492088091160224
:10174000D80116968C9317C0E11044C040E06D2D6F
:101750008C2D0E940B0BE82E882379F080E192E01B
:101760000E949208E0E1F2E087E0DF011D928A9595
:10177000E9F70E94A10AF12CF9C0CF86D88A8F859B
:1017800098890E94510A292F22952F70243020F425
:101790009F70223028F009C02A50223080F014C0F7
:1017A000992349F0811107C013C0992321F0F80152
:1017B0009681907F69F0805E883030F409C0803F68
:1017C00038F0815F833020F0C8010E949208EF2C2E
:1017D000FE2CCCC080911602816080931602CBCF84
:1017E000909110029C118FCFE1108DCF8683C8019C
:1017F0000E94920887E0F801A0E1B2E001900D920A
:101800008A95E1F7AEC0EE2009F482CF209116024E
:10181000822F82958F7090E002978CF08091100259
:1018200090911102998788879B868A8680911402FD
:101830008C871D862E87CE0108960E94920887E02D
:10184000F801A0E1B2E001900D928A95E1F70E94C3
:10185000B20A0E94A10A88C090911602292F207F07
:1018600091F4682D9A8A898AA6017A899E2D0E9410
:10187000FF0880E192E00E94920887E0F501119252
:101880008A95E9F776CF882309F470C08091110218
:101890008D1110C0809110028C110CC0E1100AC093
:1018A0009683C8010E94920887E0F50111928A95FB
:1018B000E9F75CC0C8010E94F208882309F428CF28
:1018C000EE2009F425CF20911602822F82958F7089
:1018D00090E002970CF4B3CF809110029091110226
:1018E0009A8389839C828B82809114028D831E82CD
:1018F0002F83CE010196A1CF4F3A510528F58823B9
:1019000099F1FE2CEE2009F403CF80911102D81238
:101910000DC0809110028C1109C087E0F801A0E190
:10192000B2E001900D928A95E1F720C0C8010E94B3
:10193000F208811184CF8091160281608093160293
:10194000C8010E94920812C0682D9A8A898AA6014D
:101950007A899E2D0E94FF0887E0D5011D928A9505
:10196000E9F70E94A10A02C0FF24F3948F2D649628
:10197000ECE00C949521AEE0B0E0E1ECFCE00C94DE
:101980008221288739874A875B876C877D878E8786
:10199000CE0108960E942B0B882361F06C8566238C
:1019A000A9F1288539854A855B857D858E850E94CC
:1019B00009092CC087E0FE013896DE0111960190DE
:1019C0000D928A95E1F76C85662301F12091D7018C
:1019D00030E0C9010196877099274091D60150E007
:1019E00084179507E1F16D8397E0929FD001939F53
:1019F000B00D1124A852BE4FFE01319601900D92F8
:101A00009A95E1F78093D7010E947F0A17E08091B1
:101A1000D6019091D701891779F1189FC00111243F
:101A200088529E4F0E942B0B882331F1E091D60102
:101A30001E9FF0011124E852FE4F20813181428126
:101A400053816481758186810E9409098091D60144
:101A500090E00196877099278093D601D8CF0E9495
:101A6000D2081092D7011092D601E0E1F2E087E0AF
:101A7000DF011D928A95E9F72E96E3E00C949E21F2
:101A800080913F02869586958695089580913F02C4
:101A90008770089590913F02977081E009F480E08B
:101AA000089580916B02089590916B02892B809329
:101AB0006B020895809590916B02892380936B024D
:101AC000089510926B02089590916A02892B809379
:101AD0006A020895809590916A02892380936A0230
:101AE000089510926A020895809141020895089520
:101AF0000E94770D08950E94780D089590914102FB
:101B0000292F2823821729F0982B909341020E94B5
:101B10007B0D089590914102292F282331F0809563
:101B20008923809341020E947B0D08958091410298
:101B3000882329F01092410280E00E947B0D0895D5
:101B4000CF93C0916B0280916A02C82B80914102B1
:101B5000882331F0C82B0E94D31881110E94960D62
:101B60008C2FCF910895CF93DF93C0910201D09134
:101B700003010E94A00D8883C0910201D09103014E
:101B800048E050E067E372E0CE010E94BE21892B5D
:101B900059F088E0FE01A7E3B2E001900D928A952A
:101BA000E1F7CE010E946218DF91CF910895CF93A3
:101BB000DF93C0910001D09101010E94A00D8983A3
:101BC000C0910001D091010140E250E067E172E074
:101BD000CE010E94BE21892B59F080E2FE01A7E1CF
:101BE000B2E001900D928A95E1F7CE010E946D1846
:101BF000DF91CF91089580911601882339F080916B
:101C0000B20287FF03C00E94D70D08950E94B30D52
:101C100008950E94770D08950E94090E08959091ED
:101C20004002292F282331F0809589238093400298
:101C30000E940C0E08950E94770D08959091B302B2
:101C400092FF11C098E0899F90011124262B2093C8
:101C50003F020E945B0980913F028695869586959A
:101C60000E941B0E08950E945B09089510923F0286
:101C700080E00E941B0E089590913F028095892379
:101C800080933F02282F277069F4981759F090919C
:101C9000B30292FF07C08695869586950E946B09D0
:101CA0000E94360E08959091B30292FB222720F9EC
:101CB000281769F080FB92F99093B3028091B202E9
:101CC0009091B3020E949B0E82E00E943C0E089508
:101CD0008091B30282FB882780F991E089270E94D6
:101CE000530E089581E00E94530E089580E00E94F3
:101CF000530E08956FEF7FEF80E090E00E94102276
:101D0000089580E090E00E94DC2121E0853E9E4F16
:101D100009F020E0822F089582E090E00E94D42113
:101D2000089583E090E00E94D421089584E090E03B
:101D30000E94DC210895BC0184E090E00E94102202
:101D40000895AB01BC018FE090E00E940422089549
:101D5000AB01BC0183E190E00E940422089560E0A1
:101D600070E0CB010E94A80E089560E070E0CB0106
:101D70000E94A10E0E94AF0E0895A8E0B0E0E3EC2F
:101D8000FEE00C94832165EE7EEF80E090E00E94FF
:101D9000102260E082E090E00E94F22181E090E079
:101DA0009093D5018093D40161E083E090E00E949C
:101DB000F22160E074E184E090E00E94102260E093
:101DC00086E090E00E94F22160E087E090E00E94CF
:101DD000F22140E050E0BA0188E090E00E94042245
:101DE00060E083E290E00E94F22160E08CE090E00D
:101DF0000E94F22160E08DE090E00E94F2211982C1
:101E00001A821B821C821D821E821F82188648E055
:101E100050E067E170E0CE0101960E94E22140E0CF
:101E200050E0BA018FE190E00E9404220E94B50EBA
:101E30002896E2E00C949F210E94BD0E0895682F21
:101E40008EE090E00E94F2210895A6E0B0E0EBE27F
:101E5000FFE00C9481210E94501A8C0180916C0249
:101E600090916D020817190781F019821A820E9459
:101E7000501A682F49815A81792F80E090E00E94A2
:101E8000240510936D0200936C022696E4E00C94F6
:101E90009D210E945C1A609382027093830280935A
:101EA00084029093850260937E0270937F028093F8
:101EB000800290938102089581E0089581E0089561
:101EC0000E945E0F089508950E94630F08950E9476
:101ED000630F08950E94670F08950E94630F08958D
:101EE0000E946D0F08950E94630F089580E392E1B0
:101EF0000E94C2120E94730F0E94700F08950E94E8
:101F0000640F0E94630F08950E94810E811102C028
:101F10000E941C0F0E948C0E809386020E94960ED7
:101F20009093B3028093B2020E94910E90E00E94BF
:101F300022098091D2019091D3010E944009089515
:101F40000E94471A0E944A120E94840F0E94FA04BB
:101F50000E94C7120E946A0F0895A6E0B0E0E3EB6A
:101F6000FFE00C947A210E945C0F811103C00E9453
:101F7000250F53C00E945C128EE6E82E82E0F82EF8
:101F8000670100E0F60111916F01802F0E9432126B
:101F900081270F5F003119F08823A1F302C0882345
:101FA00031F38091860281FD0E9438120E94600FF9
:101FB000A82E10E099249394812F0E943212B82EFB
:101FC000F701C080C82609F100E0DD24D3948C2DF0
:101FD0008D21A9F0AA2099F009831A830E94501A32
:101FE0009C838B839D8291E08B2D8D2109F490E061
:101FF00049815A816B817C818D810E9424050F5F0C
:10200000DD0C083021F7F701B0821F5FFFEFEF1AF8
:10201000FF0A103189F60E94490F0E94EA130E94BC
:10202000B3160E940B052696EBE00C9496211F93A5
:10203000CF93DF930E944511EC01C11580E5D807CD
:10204000E8F5C11590E4D90708F0A8C0C03ED10555
:1020500030F5CD3CD10508F094C0C83AD10578F4EC
:10206000C53AD10508F083C0C130D10509F47CC060
:1020700008F4F2C0C430D10508F0F1C0EDC0C33C93
:10208000D10508F0E9C0C85AD0E0CC0FDD1FC05B15
:10209000DE4F0990D881C02DCE019464E1C0C115F6
:1020A00080E2D80708F0CBC0C11591E0D90708F04D
:1020B0006BC0C83ED10508F4D2C0CEC0C03682E5A0
:1020C000D80728F5C03492E5D90708F079C0C032A6
:1020D00082E5D80708F06CC0C11592E5D90708F46D
:1020E00081C04C2F4695469580E2489FA00111245F
:1020F000C37021E030E0C90102C0880F991FCA9562
:10210000E2F7EA01C82BD92BCE019D68A9C0C03ADD
:1021100082E5D807B8F48C2F8F71C03892E5D907C3
:1021200008F07BC08695869590E2899F90011124E6
:10213000C37081E090E002C0880F991FCA95E2F752
:102140009A6868C0C03C82E5D80708F46DC0C03EFC
:1021500092E5D90708F080C0CF71DD27DC2FCC27AE
:10216000CE01806F906A7CC081E090E079C0C55A52
:10217000D0E0CA57DE4F8881C82FD0E0CE019064EE
:102180006FC0CE0190656CC08D2F0E94E111182F99
:10219000CE0199270E9445111F715CC0CE0199277D
:1021A0000E944511CC27DF70D06A8C2B9D2B58C024
:1021B000CF71D0E0DC2FCC27CE01816F906A50C068
:1021C0008C2F8F718695869590E2899F90011124BE
:1021D000C37081E090E002C0880F991FCA95E2F7B2
:1021E0009C6818C08C2F8F710E94E11195E0D695E4
:1021F000C7959A95E1F7CF70D0E0DC2FCC27282F38
:1022000030E084FF05C084E0220F331F8A95E1F798
:10221000D069CE01822B932B23C090E0D82FCC27FE
:10222000CE01846F906A1CC08C2F8F710E94E111C7
:102230008F7190E0D82FCC27CE01906211C08D2FE6
:102240008F710E94E111182FCE0199270E9445112C
:102250001F719062912B04C080E090E001C0CE011C
:10226000DF91CF911F910895703138F4683028F4D0
:10227000462F672F0E94E503089580E090E00895BF
:102280000E9434110E94171008958238910569F157
:10229000B0F48133910509F475C048F48932910591
:1022A00009F467C08A32910509F471C00895853335
:1022B000910509F459C089339105B9F00895833E19
:1022C000910589F138F4803E9105D1F0823E910567
:1022D00029F10895863E9105C9F1873E9105D9F10E
:1022E000843E910509F06CC027C02091B20220FD08
:1022F00057C021FD55C02091B30223FD5BC0089556
:102300008091B20280FD48C08091B30280FF48C036
:102310008091B20284FD46C083EE51C08091B2022A
:1023200082FF3CC0F5CF8091B20282FD37C0809120
:10233000B30280FD35C0ECCF8091B30281FF36C07F
:102340008091B20284FD2EC087EE39C08091B20226
:1023500083FF2AC0F5CF8091B20283FD25C0809112
:10236000B30281FD23C0ECCF8091B20285FD22C073
:102370001FC08091B20285FD1BC08091B30283FF14
:1023800019C00AC08091B20286FD16C017C08091A4
:10239000B20286FD13C010C089E311C082EE0FC0E7
:1023A00080EE0DC080E00BC086EE09C084EE07C051
:1023B00085E305C089E203C08AE201C081E390E0C1
:1023C00008959091B20292FF10C041E0282F24712D
:1023D000243009F040E031E0282F2871283009F03E
:1023E00030E0431711F02CE0822793FF10C041E04A
:1023F000282F2471243109F040E031E0282F287182
:10240000283109F030E0431711F02CE08227309199
:10241000B30230FF10C051E0282F2171213009F0A4
:1024200050E041E0282F2871283009F040E054178F
:1024300011F029E0822731FF10C041E0282F2171DF
:10244000213109F040E031E0282F2871283109F0CE
:1024500030E0431711F029E0822794FD877E08952C
:1024600080E00895E82FF0E0EC53FD4F808108955F
:10247000089580EA8A95F1F7089508950E943D1223
:1024800008950E943E1208950E943D1208950E94F0
:10249000441208950E942403E4EBF2E0A4ECB2E0BD
:1024A00011921D9282E0E43CF807D1F780E10E948E
:1024B0006F120E9447120895CF9384EB92E00E941E
:1024C0004003282F40E164EC72E084EB92E00E942C
:1024D0007012C82F0E9441128C2FCF910895089539
:1024E000EF92FF920F931F93CF93DF937C018B01A9
:1024F000C42F222351F081E0809389020E94501A58
:10250000909388028093870204C080918902811190
:1025100002C080E01AC080918702909188020E94D8
:10252000681A0A97B0F3D0E0AE01B701C8010E9463
:10253000BE21892B39F0AE01B701C8010E94CB2121
:1025400081E001C080E010928902CDB7DEB7E6E0FD
:102550000C949B210E94AD0F08950E94341A0E9492
:102560000D1C0E94760F0E94271C0E94A00F0E9443
:10257000341C0E94391C0E94AA120E94531C0E9403
:102580007F0FF7CF90938B0180938A010895E1E844
:10259000F0E08081886080838081816080838FB754
:1025A000F89420ED33E030938900209388008FBFAA
:1025B0000895EFE6F0E08081826080830895EFE681
:1025C000F0E080818D7F808308951F920F920FB677
:1025D0000F9211242F933F934F935F936F937F93A9
:1025E0008F939F93AF93BF93EF93FF9380918B0251
:1025F00090918C02019690938C0280938B028111B2
:1026000007C080918A02826080938A020E9403053B
:10261000E0918C02E695E695F0E0E65DFB4FE491F3
:1026200080918B028E1307C080918A028D7F8093E8
:102630008A020E940305FF91EF91BF91AF919F9194
:102640008F917F916F915F914F913F912F910F905B
:102650000FBE0F901F901895A0E0B0E0E2E3F3E109
:102660000C947E21EC017B01C3378CE7D80749F439
:10267000FB011581112309F47DC00E94FC1310E0B9
:1026800079C00E94510DD82E0E94740D082F0E940F
:10269000C913811102C011E06DC00E94C013F7017F
:1026A00015811123C1F30D290D7909F061C0C034E2
:1026B000F2E5DF07B8F4C11582E5D80708F05AC083
:1026C000C115E0E4DE0748F4C115F0E2DF0730F59C
:1026D000C63ED10509F040C04DC0C11580E5D80700
:1026E000A8F13AC0C03EE2E5DE0790F4C03CF2E556
:1026F000DF0708F03FC0C03682E5D80768F1C03A6E
:10270000E2E5DE07B8F1C43BF2E5DF0799F124C04A
:10271000CE0187579C470297F8F42CC0F7018681B9
:10272000807FC9F48D2F8F71823169F028F4823057
:10273000F9F4C1EED0E010C08431E1F08631C1F48B
:10274000C6EED2E109C0C5EED0E006C0F701868131
:10275000807F09F4A0CFDD270E94710DCE010E9479
:102760009C03C82F882321F00E94FB0D1C2F02C060
:102770000E94DD13812FCDB7DEB7E7E00C949A21DC
:102780000E94501A84529A4F90938E0280938D0229
:10279000089580918F020895089580918F0281118C
:1027A0000BC00E94610D0E94960D0E94C01381E033
:1027B00080938F020E94CC13089580918F0288230A
:1027C00041F082E20E94B50810928F0280E00E94E0
:1027D000CC13089580918F02882369F00E94501ACB
:1027E00020918D0230918E02821B930B8F3F9F4769
:1027F00010F40E94DD13089580918F02882319F050
:102800000E94DD1308950E94CD130895CF93DF93A6
:1028100086319C4709F5EB010E94510D9D8199235A
:1028200071F08A7A91E009F490E09093900281111E
:1028300002C089E201C085E30E947A1909C0809133
:102840009002811102C089E201C085E30E949119C2
:102850000E94FB0D80E001C081E0DF91CF910895DF
:10286000CF93DF93FC01DB0115968C91882309F44B
:10287000DDC09F0130572332310508F0D8C0EF0189
:102880000E94960E9093B3028093B202FE01E15033
:10289000F047E232F10520F4EE59FF4F0C946D2120
:1028A0008091B2028160AAC08091B3028860B2C0F8
:1028B0008091B2028260A2C08091B20220C0809159
:1028C000B20288609BC08091B3021EC08091B302A7
:1028D0008260A0C08091B202806190C08091B202FB
:1028E00080628CC08091B202806488C00E94D2084D
:1028F0008091B202806882C08091B2028860846058
:102900007DC08091B3028260816084C08091B202F8
:102910008E7F74C08091B302877F7CC08091B202A9
:102920008D7F6CC08091B20220C08091B202877FFF
:1029300065C08091B3021EC08091B3028D7F6AC0D2
:102940008091B2028F7E5AC08091B2028F7D56C0B4
:102950008091B2028F7B52C00E94D2088091B20255
:102960008F774CC08091B202877F8B7F47C0809168
:10297000B3028D7F8E7F4EC08091B20282FB2227F0
:1029800020F991E0922790FB82F990FB83F936C001
:102990008091B302982F909591708E7F892B90FB38
:1029A00081F938C08091B20286FB222720F991E09C
:1029B000922790FB86F922C00E94D2088091B20231
:1029C00087FB222720F991E0922790FB87F916C018
:1029D00081E001C080E00E941F0F1EC08091B20202
:1029E00084FB222720F991E0922790FB84F906C00E
:1029F0008091B202982F909590FB80F98093B2025B
:102A00000BC08091B30283FB222720F991E092272B
:102A100090FB83F98093B3028091B2029091B3024C
:102A20000E949B0E0E94D20880E001C081E0DF91ED
:102A3000CF910895282F35EB2303C001112497FF70
:102A400003C08058910902C080589F4F892F089574
:102A50008091970280FF06C06091090170E0660FC7
:102A6000771F26C081FF04C06091090184E005C082
:102A700082FF07C06091090188E0689FB0011124BE
:102A800017C0909196029923D1F060910801961792
:102A900088F72091090188E0289F90011124929FD6
:102AA000A001939F500D112470E0CA010E9459218A
:102AB0006038710540F46115710519F406C068E0CD
:102AC00070E0862F08958FE7089581E00895809142
:102AD000970280FF08C06091050170E075956795C9
:102AE0007595679521C081FF06C06091050170E072
:102AF0007595679519C082FF04C06091050170E06B
:102B000010C090919502992399F060910401961755
:102B1000A0F780910501899FC001112470E00E94F7
:102B200059216038710540F46115710519F406C02A
:102B300061E070E0862F08958FE7089581E00895A1
:102B40008D3C21F40E942815819504C08E3C29F407
:102B50000E94281580939B0208958F3C21F40E94C7
:102B60002815819504C0803D29F40E942815809382
:102B70009A020895893D19F40E94671505C08A3D9F
:102B800031F40E946715819580939C0208958B3DD6
:102B900021F40E946715819504C08C3D29F40E94A0
:102BA000671580939D0208959FE2980F983078F4FE
:102BB00021E030E0A90102C0440F551F9A95E2F7C9
:102BC000CA0190919902892B8093990208958D3DB5
:102BD00021F48091970281600BC08E3D21F4809199
:102BE0009702826005C08F3D29F48091970284602E
:102BF0008093970208958D3C39F490919B0297FF42
:102C000035C010929B0259C08E3C29F490919B02D2
:102C10001916BCF32BC090919A028F3C29F497FFB0
:102C200025C010929A0249C0803D19F41916CCF3C0
:102C30001DC090919C02893D29F41916BCF4109294
:102C40009C023BC08A3D19F497FF10C0F8CF8B3D22
:102C500039F490919D0297FF09C010929D022DC0FA
:102C60008C3D21F490919D021916BCF39FE2980FC0
:102C7000983080F421E030E0A90102C0440F551FD4
:102C80009A95E2F7CA0180959091990289238093E1
:102C9000990213C08D3D21F4809197028E7F0BC065
:102CA0008E3D21F4809197028D7F05C08F3D29F4E0
:102CB000809197028B7F8093970280919A02811175
:102CC00006C080919B02811102C0109296028091F1
:102CD0009C02811106C080919D02811102C0109258
:102CE000950208950E94501A20919A02211104C061
:102CF00020919B02222321F09093940280939302CF
:102D000020919C02211104C020919D02222321F0D8
:102D1000909392028093910288E992E00E947B183E
:102D20000895E8E9F2E086E0DF011D928A95E9F76F
:102D30001092960210929502109297020895FC014B
:102D4000828181110DC0838181110AC0848181112A
:102D500007C091E08581811101C090E0892F01C0F9
:102D600081E081700895A6E0B0E0E9EBF6E10C9413
:102D7000822186E0E8E9F2E0DE01119601900D92F1
:102D80008A95E1F710929A0210929B0210929C028F
:102D900010929D028B81811104C08C81882309F4DB
:102DA00056C080919302909194020E94681AAC01DF
:102DB00090919602992339F020910A0130E024176E
:102DC000350758F044C020910B018AE0289F9001FC
:102DD00011242417350718F03AC09F3F19F09F5F60
:102DE000909396021B81112361F00E942815111601
:102DF00014F09FEF01C091E0989F902D11249093C3
:102E00009A021C81112361F00E942815111614F0FA
:102E10009FEF01C091E0989F902D112490939B0209
:102E200080919A02882399F010919B02112379F0E6
:102E30000E941A15811101C081E080939A02812FAE
:102E40000E941A15811101C081E080939B028D813F
:102E5000811104C08E81882309F456C080919102AB
:102E6000909192020E94681AAC0190919502992368
:102E700039F02091060130E02417350758F044C09E
:102E8000209107018AE0289F90011124241735071B
:102E900018F03AC09F3F19F09F5F909395021D81F3
:102EA000112361F00E946715111614F09FEF01C005
:102EB00091E0989F902D112490939C021E811123E4
:102EC00061F00E946715111614F09FEF01C091E0A8
:102ED000989F902D112490939D0280919C028823AD
:102EE00099F010919D02112379F00E941A15811119
:102EF00001C081E080939C02812F0E941A158111EC
:102F000001C081E080939D02BE016F5F7F4F88E921
:102F100092E00E94C219811105C088E992E00E94E6
:102F20009F1681110E94721686E0FE013196A8E973
:102F3000B2E001900D928A95E1F72696E3E00C94B9
:102F40009E210F931F93CF93DF93C42FD22FFC01A9
:102F500085818823B1F04093A0020E94501A90937B
:102F60009F0280939E0280E28C0F883008F04DC053
:102F7000C77081E001C0880FCA95EAF70E94740605
:102F800044C08091A002481330C080919E0290916D
:102F90009F020E94681A8F3A910538F510E21D0FC2
:102FA000CD17B9F080E28C0F883040F4C77081E013
:102FB00001C0880FCA95EAF70E947B06183010F509
:102FC00081E09D2F977001C0880F9A95EAF70E94C3
:102FD0007406802F0E946A061830B8F4D77081E01A
:102FE00001C0880FDA95EAF70AC080E28C0F8830BA
:102FF00060F4C77081E001C0880FCA95EAF70E94AB
:103000007B0603C0802F0E946A06DF91CF911F913B
:103010000F9108950F93FC01E851FC47E730F1054B
:1030200090F5CB01EC57FF4F0C946D2106E221EE99
:1030300041EE6AE17CE723C007E225EE45EE6BE155
:103040007CE71DC006E221EE40EE68E17CE717C098
:1030500007E225EE44EE69E17CE711C006E221EECD
:1030600042EE6CE17CE70BC007E225EE46EE6DE137
:103070007CE705C008E221E045EE6EE17CE70E94B6
:10308000A11780E008C0FB018581882319F0109208
:10309000A00201C081E00F9108959093A602809351
:1030A000A5020895E091A502F091A602309729F0BB
:1030B0000190F081E02D0995089580E008950E9427
:1030C00052180895E091A502F091A602309721F0E0
:1030D0000280F381E02D09950895E091A502F09119
:1030E000A602309739F026E0DC012C930480F581AC
:1030F000E02D09950895E091A502F091A602309780
:1031000039F022E0DC012C930680F781E02D09954F
:103110000895A3E0B0E0EFE8F8E10C94832120915A
:10312000A3023091A40228173907A1F09093A402BA
:103130008093A302E091A502F091A602309751F08E
:1031400023E029839B838A830084F185E02DCE01CF
:10315000019609952396E2E00C949F21A3E0B0E04C
:10316000E4EBF8E10C9483212091A1023091A202BA
:1031700028173907A1F09093A2028093A102E09151
:10318000A502F091A602309751F024E029839B8399
:103190008A830084F185E02DCE010196099523965E
:1031A000E2E00C949F21E0910201F091030132963C
:1031B00080911601882359F08091B20287FF07C0E1
:1031C000E0910001F091010132969EE101C096E08C
:1031D00080E0915028F021912223D9F38F5FF9CF1D
:1031E0000895882399F190911601992309F19091FE
:1031F000B20297FF1DC0982F9695969596959E3191
:1032000028F5E0910001F0910101E90FF11D228103
:10321000422F50E0877021E030E002C0220F331FC0
:103220008A95E2F72423352381E0232B91F40EC005
:103230002091020130910301F9013296285F3F4F3E
:103240009191891729F0E217F307D1F780E00895EB
:1032500081E008959C01FC0132969FEF80E041914E
:10326000461789F09F3F19F4411101C0982F8F5FD5
:103270008630A9F79F3F39F0F901E90FF11D97FD5D
:10328000FA956283089508959C012A5F3F4FFC01DF
:103290004281461301C01282019682179307B9F743
:1032A0000895262F2695269526952E3168F4FC0143
:1032B000E20FF11D677021E030E001C0220F6A9536
:1032C000EAF78281282B22830895262F26952695BA
:1032D00026952E3170F4FC01E20FF11D677021E09C
:1032E00030E001C0220F6A95EAF7209582812823F9
:1032F00022830895682F80911601882359F08091C8
:10330000B20287FF07C080910001909101010E94E5
:103310005119089580910201909103010E942A1988
:103320000895682F80911601882359F08091B20288
:1033300087FF07C080910001909101010E946519EB
:10334000089580910201909103010E94441908950B
:1033500080911601882359F08091B20287FF07C03F
:10336000E0910001F091010132968EE106C0E091FA
:103370000201F0910301329686E0DF011D928A95E9
:10338000E9F70895DC01FB0111969C911197818169
:10339000981321C012968C911297882319F092816C
:1033A000891319C013968C911397882319F0938170
:1033B000891311C015968C911597882319F0958162
:1033C000891309C014969C91992339F081E02481D6
:1033D000291304C002C081E001C080E0817008951B
:1033E00008950E94F019089583E08093A7020E9437
:1033F000F1190895811102C081E001C082E080933B
:10340000A7020E94F11908950E94FA19089581E017
:103410008093A7020E94F11908950E94071A089547
:1034200008950E94101A08950E94111A08950E948A
:10343000101A08950E94101A08950E94101A0895F3
:10344000CF930E941A1A0E945C120E94171AC0E0C1
:103450008C2F0E943212811104C0CF5FC031C1F79E
:1034600001C081E0CF91089585B7806885BF85B799
:10347000806885BF08958091DC02843011F00E943D
:10348000CB0408950E94D2080E94CE04089582E0E1
:1034900084BD93E095BD9AEF97BD80936E0008952B
:1034A0002FB7F8948091D4029091D502A091D602C2
:1034B000B091D7022FBF08952FB7F8946091D4022E
:1034C0007091D5028091D6029091D7022FBF0895B6
:1034D0009C014FB7F8948091D4029091D502A091AD
:1034E000D602B091D7024FBF821B930B08957894F8
:1034F0001F920F920FB60F9211248F939F93AF9349
:10350000BF938091D4029091D502A091D602B09140
:10351000D7020196A11DB11D8093D4029093D502CC
:10352000A093D602B093D702BF91AF919F918F9194
:103530000F900FBE0F901F90189587E797E7909315
:103540000108809300089AE088E10FB6F894A895E6
:10355000809360000FBE90936000FFCF9AE088E1F7
:103560000FB6F894A895809360000FBE909360000A
:10357000FFCF8091B00208959B019091DC029430BE
:10358000F1F48F708093E9008FEF9091E800815003
:1035900095FD06C095ED9A95F1F700008111F5CFE4
:1035A0008091E80085FF0BC0BA01C90140E050E0FE
:1035B0000E94CB1C8091E8008E778093E8000895EC
:1035C00043E050E0BC0182E00E94BC1A089546E04E
:1035D00050E0BC0182E00E94BC1A089540E250E035
:1035E000BC0182E00E94BC1A0895CF93DF93EC01E6
:1035F00048E050E0BC0181E00E94BC1A88E0FE0176
:10360000A8EAB2E001900D928A95E1F7DF91CF919F
:1036100008958091DB02811109C00E94561E0E940C
:10362000B31E8091E20084608093E20008951092BE
:10363000DB0208950E940D1A08956091D80281E07E
:10364000611101C080E00E94F4190E94D91208950E
:103650009091DC0281E0943009F080E06091D80222
:103660000E94FA190E94DF120E9452180E9403055C
:10367000089542E061EC81E00E94CF1D42E261ECDE
:1036800082E00E94CF1D9091DC0281E0943009F02D
:1036900080E06091D8020E94041A08958091DE02B1
:1036A000833009F461C030F4813071F0823009F464
:1036B0009BC008958A3009F487C08B3009F46CC030
:1036C000893009F0A9C020C08091DD02813A09F05B
:1036D000A3C08091E800877F8093E8008091E10299
:1036E0009091E202892B21F468E088EA92E003C01D
:1036F00060E080E090E070E00E94101D8091E800A2
:103700008B778093E80008958091DD02813209F083
:1037100083C08091E1029091E202029708F07CC0A0
:103720008091E800877F8093E8008091E80082FD27
:1037300005C08091DC028111F8CF6EC02091F300AA
:103740008091F20090E0922B029731F48091F10089
:10375000813011F0863021F48091F1008093B00225
:103760008091E8008B7754C08091DD02813A09F0A6
:1037700053C08091E1029091E202892B09F04CC084
:103780008091E800877F8093E8008091E80080FFC7
:10379000FCCF8091160137C08091DD028132E1F5C6
:1037A0008091E1029091E202892BB1F58091E800CD
:1037B000877F8093E8000E94041E8091DF0280933F
:1037C00016010E94D20808958091DD02813221F510
:1037D0008091E800877F8093E8000E94041E80911A
:1037E000E0028093B10208958091DD02813AA1F454
:1037F0008091E800877F8093E8008091E80080FF57
:10380000FCCF8091B1028093F1008091E8008E7727
:103810008093E8000E94041E089584B7877F84BFC8
:103820000FB6F894A895809160008861809360003D
:10383000109260000FBE90E080E80FB6F89480937D
:103840006100909361000FBE0E94071A08950E94C4
:10385000561E0E94B31EE2EEF0E0808184608083F9
:1038600078940E943E2108958CE091E00E944D18CA
:1038700008958091DC028530A9F48091DC028530C6
:1038800079F40E943B1A0E94201A8823B1F3809198
:10389000DA02882391F30E94B51C0E94D208EDCF72
:1038A0000E94421A089508959A014091E3025091AE
:1038B000E4020E945C1C0895492F552743305105AE
:1038C000C9F060F44130510581F04230510509F0F2
:1038D00044C08BE390E042EC54E043C041325105D8
:1038E000E1F04232510549F138C082E190E04DEFFC
:1038F00054E037C099278130910549F028F00297AC
:1039000061F5EAE6F4E005C0EEEBF4E002C0E4EBBA
:10391000F4E0849190E0AF0124C06115710541F09D
:1039200061307105D1F489E090E04DEE54E019C0AA
:1039300089E090E044ED54E014C06115710541F058
:103940006130710551F486EB90E04FE055E009C01D
:1039500084E490E045EC55E004C080E090E040E075
:1039600050E0F90151834083089580E189BD82E1EF
:1039700089BD09B400FEFDCF8091D8008F7D809372
:10398000D8008091E00082608093E0008091E000A8
:1039900081FDFCCF0895A0E0B0E0E1EDFCE10C94E6
:1039A0007D21EC018B017A010E94231E811133C01D
:1039B000E114F10439F0F70180819181081B190BA2
:1039C000C80FD91FC12CD12C0115110519F18091F7
:1039D000E80085FD16C08091E8008E778093E800AE
:1039E000E114F10449F0F70180819181C80ED91EDC
:1039F000D182C08285E00FC00E94231E882321F35C
:103A00000AC089918093F10001501109FFEFCF1A8C
:103A1000DF0ADACF80E0CDB7DEB7E8E00C94992179
:103A20002091E3023091E4022617370748F0611530
:103A3000710539F42091E8002E772093E80001C049
:103A4000B901FC0120E06115710579F18091DC027A
:103A50008823F1F18530F1F18091E80083FD3CC0CD
:103A60008091E80082FD2EC08091E80080FFEBCFBE
:103A70002091F3008091F20090E0922B6115710586
:103A800051F08830910538F421912093F100615074
:103A900071090196F3CF21E0089709F020E08091A9
:103AA000E8008E778093E800CECF2111CFCF0AC0F7
:103AB0008091DC02882361F0853061F08091E8001C
:103AC00083FD0AC08091E80082FFF2CF80E0089574
:103AD00082E0089583E0089581E008952091E30253
:103AE0003091E4022617370748F06115710539F463
:103AF0002091E8002E772093E80001C0B901FC0175
:103B000020E06115710591F18091DC02882309F4B0
:103B100040C0853009F43FC08091E80083FD3DC07E
:103B20008091E80082FD2FC08091E80080FFE9CFFE
:103B30002091F3008091F20090E0922B61157105C5
:103B400059F08830910540F424912093F10031968A
:103B5000615071090196F2CF21E0089709F020E049
:103B60008091E8008E778093E800CBCF2111CCCFF5
:103B70000AC08091DC02882361F0853061F0809179
:103B8000E80083FD0AC08091E80082FFF2CF80E068
:103B9000089582E0089583E0089581E00895982FC4
:103BA000973068F59093E900981739F07091EC0020
:103BB0002091ED005091F00003C0242F762F50E0AB
:103BC00021FD02C09F5FECCF3091EB003E7F309330
:103BD000EB003091ED003D7F3093ED003091EB0034
:103BE00031603093EB007093EC002093ED00509324
:103BF000F0002091EE0027FDE5CF80E008958F7062
:103C00008093E90081E008958091DD0287FF11C073
:103C10008091E80082FD05C08091DC028111F8CF1F
:103C200011C08091E8008B770BC08091DC02882363
:103C300049F08091E80080FFF8CF8091E8008E770E
:103C40008093E80008952091E4003091E50095E626
:103C50004091EC00842F817040FF23C08091E800E8
:103C600080FD1DC08091DC02882399F0853099F099
:103C70008091EB0085FD11C04091E4005091E5007A
:103C80002417350729F3915011F09A01E1CF84E010
:103C9000089582E0089583E0089581E0089580E02A
:103CA00008954091E80042FFDDCF08950E94C51EAF
:103CB0000E94CD1EE0EEF0E0808181608083E8ED1F
:103CC000F0E080818F77808319BCA7EDB0E08C9104
:103CD0008E7F8C9380818F7E80831092DB0208958B
:103CE0000F931F93CF93DF930E94C51E0E94CD1E9A
:103CF000C8EDD0E088818F77888388818068888349
:103D000088818F7D888319BC1092DC021092D802C2
:103D10001092DA021092D90200EE10E0F8018081D0
:103D20008B7F808388818160888342E060E080E0CF
:103D30000E94CF1DE1EEF0E080818E7F8083E2EE75
:103D4000F0E0808181608083808188608083F801D9
:103D500080818E7F8083888180618883DF91CF918D
:103D60001F910F910895E8EDF0E080818F7E8083B0
:103D7000E7EDF0E080818160808384E082BF81E0B4
:103D80008093DB020E94701E0895E8EDF0E08081D0
:103D90008E7F80831092E20008951092DA001092D4
:103DA000E10008951F920F920FB60F9211242F93E6
:103DB0003F934F935F936F937F938F939F93AF93B3
:103DC000BF93EF93FF938091E10082FF0BC080913E
:103DD000E20082FF07C08091E1008B7F8093E100C9
:103DE0000E943D218091DA0080FF1FC08091D800A1
:103DF00080FF1BC08091DA008E7F8093DA00809173
:103E0000D90080FF0DC080E189BD82E189BD09B480
:103E100000FEFDCF81E08093DC020E94091B05C0FB
:103E200019BC1092DC020E94171B8091E10080FFF8
:103E300019C08091E20080FF15C08091E2008E7F62
:103E40008093E2008091E20080618093E2008091A3
:103E5000D80080628093D80019BC85E08093DC0292
:103E60000E941D1B8091E10084FF30C08091E20020
:103E700084FF2CC080E189BD82E189BD09B400FEC8
:103E8000FDCF8091D8008F7D8093D8008091E10094
:103E90008F7E8093E1008091E2008F7E8093E2002C
:103EA0008091E20081608093E2008091D8028823B3
:103EB00011F084E007C08091E30087FD02C081E03B
:103EC00001C083E08093DC020E94281B8091E10006
:103ED00083FF29C08091E20083FF25C08091E1002B
:103EE000877F8093E10082E08093DC021092D80209
:103EF0008091E1008E7F8093E1008091E2008E7FCF
:103F00008093E2008091E20080618093E20042E0D1
:103F100060E080E00E94CF1D8091F0008860809377
:103F2000F0000E941A1BFF91EF91BF91AF919F91FA
:103F30008F917F916F915F914F913F912F910F9052
:103F40000FBE0F901F9018951F920F920FB60F92F1
:103F500011242F933F934F935F936F937F938F938E
:103F60009F93AF93BF93CF93DF93EF93FF93C09152
:103F7000E900CF708091EC00D82FD17080FDD0E89F
:103F80001092E9008091F000877F8093F000789490
:103F90000E94E81F1092E9008091F00088608093F1
:103FA000F000CD2BCF70C093E900FF91EF91DF912E
:103FB000CF91BF91AF919F918F917F916F915F91C1
:103FC0004F913F912F910F900FBE0F901F9018951A
:103FD000AAE2B0E0EEEEFFE10C948221EDEDF2E01A
:103FE0008091F100819322E0E53EF207C9F70E943B
:103FF0004E1B8091E80083FF2EC18091DD029091DD
:10400000DE02492F50E04A30510508F024C1FA0180
:10401000E557FF4F0C946D21803821F0823809F06C
:104020001AC108C08091D9029091DA02992389F0CF
:1040300082600FC08091E1028F70873008F00BC161
:104040008093E9008091EB0085FB882780F910922E
:10405000E9009091E800977F9093E8008093F10049
:104060001092F100D1C0282F2D7F09F0F4C08823D1
:1040700019F0823061F0EFC08091DF02813009F0E9
:10408000EAC0933009F080E08093DA022EC080917C
:10409000DF0281112AC08091E1028F702FEF280F7B
:1040A000263008F0D8C08093E9002091EB0020FF73
:1040B0001CC0933021F48091EB00806214C0909179
:1040C000EB0090619093EB0021E030E0A90102C089
:1040D000440F551F8A95E2F74093EA001092EA00D8
:1040E0008091EB0088608093EB001092E900809152
:1040F000E800877F8093E8000E94041EACC0811115
:10410000AAC01091DF021F778091E3008078812B95
:104110008093E3008091E800877F8093E8000E940D
:10412000041E8091E80080FFFCCF8091E30080684E
:104130008093E300111102C082E001C083E080930C
:10414000DC0289C08058823008F085C08091DF028F
:104150009091E0028C3D53E0950779F583E08A83E6
:104160008AE289834FB7F894DE01139620E03EE09F
:1041700051E2E32FF0E050935700E49120FF03C099
:10418000E295EF703F5FEF708E2F90E0EA3010F015
:10419000C79601C0C0968D939D932F5F243149F738
:1041A0004FBF8091E800877F8093E8006AE270E06B
:1041B000CE0101960E94101D16C06091E10270911F
:1041C000E202AE014F5F5F4F0E94541CBC01892B7D
:1041D00009F441C09091E800977F9093E8008981AD
:1041E0009A810E946E1D8091E8008B778093E80091
:1041F00032C0803881F58091E800877F8093E800A5
:104200008091D8028093F1008091E8008E7772CF80
:10421000811121C08091DF029091E00299270297DD
:10422000D4F48091E800877F8093E8008091DF02DA
:104230008093D8020E94041E8091D802811106C08A
:104240008091E30087FD02C081E001C084E080939B
:10425000DC020E94391B8091E80083FF0AC0809134
:10426000E800877F8093E8008091EB008062809374
:10427000EB00AA96E3E00C949E210895CF938091E1
:10428000DC028823A1F0C091E900CF709091EC008E
:10429000892F817090FD80E8C82B1092E9008091F1
:1042A000E80083FD0E94E81FCF70C093E900CF9122
:1042B000089597FB072E16F4009407D077FD09D0D8
:1042C0000E94AA2107FC05D03EF4909581959F4F4E
:1042D0000895709561957F4F0895EE0FFF1F05902B
:1042E000F491E02D09942F923F924F925F926F923A
:1042F0007F928F929F92AF92BF92CF92DF92EF9276
:10430000FF920F931F93CF93DF93CDB7DEB7CA1BF6
:10431000DB0B0FB6F894DEBF0FBECDBF09942A8821
:10432000398848885F846E847D848C849B84AA84C9
:10433000B984C884DF80EE80FD800C811B81AA8156
:10434000B981CE0FD11D0FB6F894DEBF0FBECDBF21
:10435000ED010895AA1BBB1B51E107C0AA1FBB1F9B
:10436000A617B70710F0A61BB70B881F991F5A9501
:10437000A9F780959095BC01CD010895FB01DC0162
:1043800004C08D910190801921F441505040C8F72C
:10439000881B990B0895FB01DC0102C001900D926E
:1043A00041505040D8F70895F999FECF92BD81BD94
:1043B000F89A992780B50895A8E1B0E042E050E06E
:1043C0000C941822DC01A40FB51F4150504048F056
:1043D000CB01840F951F2E910E94F3214150504034
:1043E000D0F70895262FF999FECF92BD81BDF89A96
:1043F000019700B4021639F01FBA20BD0FB6F89429
:10440000FA9AF99A0FBE08950396272F0E94F32176
:104410000E94F221252F0E94F321242F0C94F321D6
:104420000196272F0E94F3210C94F221DC01CB018D
:10443000FC01F999FECF06C0F2BDE1BDF89A3196B4
:1044400000B40D9241505040B8F70895F894FFCF52
:1044500042026202010150010A041406B91AF51A57
:10446000EE1AE71AE01A01E200E900EA00B500B628
:1044700000B700CD008301CC008A01920194012194
:1044800002230224022502260227022A02B300B4D4
:10449000006F0070009F01CB019F02A00281828308
:1044A000E200E900EA00B500B600B700CD008301E4
:1044B000CC008A01920194012102230224022502E8
:1044C000260227022A02B300B4006F0070009F0189
:0A44D000CB019F02A002818283004D
:00000001FF
