:100000000C9444030C9461030C9461030C946103FD
:100010000C9461030C9461030C9461030C946103D0
:100020000C9461030C9461030C94511F0C942320D5
:100030000C9461030C9461030C9461030C946103B0
:100040000C9461030C9493150C9461030C9461035C
:100050000C9461030C94ED1A0C9461030C946103ED
:100060000C9461030C9461030C9461030C94610380
:100070000C9461030C9461030C9461030C94610370
:100080000C9461030C9461030C9461030C94610360
:100090000C9461030C9461030C9461030C94610350
:1000A0000C9461030C9461030C946103FE06FE063C
:1000B0002A072A078B07A90798089808AE0724087B
:1000C000350835083016A2163816021606163C16E4
:1000D00009163F164A161416981618164E161C16B0
:1000E00052167C1620165616861626165C166616AE
:1000F0000D164316101646162B166116721692161A
:100100009416FE153416AB1665175B176817BE17E5
:10011000C017C017BE17C017C0178917C01793178D
:100120009D17C017C017C017C017BE17C017C0173C
:10013000BE17C0177617C0175117AD17AD17AD17FB
:10014000AD17AD17AD17AD17AD17AD17B817C01771
:1001500065175817C017C017C017C017C017C017AA
:10016000C017C017C017C017B817C017C017BE17E1
:10017000C017AB17AB17AB17AB17AB17AB17AB175A
:10018000AB17AB17B817C218C818B618BC18CE18DA
:10019000D418DA188B20B220AA21B220AA21FE207E
:1001A0002121AA21782187213F003C00290042001B
:1001B000450048000000000041003E003B004400B4
:1001C000470000000000000040003D003A004300EE
:1001D0004600000000000000220017000A00050091
:1001E0002E00E3007324000021001500090019000F
:1001F000000000002921E30020000800070006009D
:1002000031004A422C0000001F001A0016001B009B
:10021000350000004C344B421E00140004001D0049
:10022000E3004D4128310000460039002B00E10079
:10023000000000002A004E410000000000002D00D8
:1002400023001C000B001100000000000000000053
:10025000240018000D0010000000000000002F0016
:1002600025000C000E0036000000007C000000009D
:10027000000000000000000000000000000030004E
:10028000260012000F003700000000000000E70009
:1002900027001300330038000000000000000000B9
:1002A00047004C0034000000000000000000000087
:1002B000000000000000000000000000000000003E
:1002C000000000000000000000000000000000002E
:1002D00000000000000000003E00000000000000E0
:1002E0002E00E300732400003D0000000000000029
:1002F000000000002921E3003C0000000000000095
:1003000031004A422C0000003B00000000000000C9
:10031000350000004C344B423A0000000000000061
:10032000E3004D4128310000000000000000000003
:10033000000000002A004E410000000000002D00D7
:100340003F0000005000000000000000000000001E
:1003500040000000510000000000000000002F00DD
:1003600041000000520000000000000000000000FA
:10037000000000000000000000000000000030004D
:10038000420000004F000000000000000000E700F5
:10039000430000000000000000000000000000001A
:1003A000000000000000000000000000000000004D
:1003B000000000000000000000000000000000003D
:1003C000000000000000000000000000000000002D
:1003D000000000000000000000000000000000001D
:1003E0000000E30073240000000000000000000093
:1003F000000000002921E3000000000000000000D0
:1004000000004A422C000000000000000000000034
:10041000000000004C344B420000000000000000CF
:1004200000004D41283100000000000000000000E5
:10043000000000002A004E410000000000005800AB
:1004400000000000000000000000000000000000AC
:1004500053005F005C0059000000000000006200D3
:10046000540060005D005A00000000000000000021
:100470000000000000000000000000000000630019
:10048000550061005E005B000000000000000000FD
:1004900056005700850067000000000000000000C3
:1004A000000000000000000000000000000000004C
:1004B000000000010204060A0F17202C3A4A5D7161
:1004C000879DB3C7DAE9F5FCFFFCF5E9DAC7B39D10
:1004D00087715D4A3A2C20170F0A060402010000BA
:1004E000000000000000000048034B0069006E009F
:1004F0006500730069007300200043006C00610018
:1005000073007300690063002F00410064007600EF
:1005100061006E0074006100670065002F004300F9
:100520006F006E0074006F0075007200650064005B
:100530000000080351004D004B00000004030904B3
:1005400009023B00020100A0FA09040000010301B6
:10055000010009211101000122440007058103085F
:10056000000109040100010300000009211101003C
:100570000122B600070582032000011201000200DB
:10058000000008EDFE6060030001020001050109A2
:1005900002A10185020901A1000509190129081517
:1005A0000025019508750181020501093009311501
:1005B00081257F95027508810609381581257F956B
:1005C0000175088106050C0A38021581257F950101
:1005D00075088106C0C005010980A10185031901C4
:1005E0002AB700150126B700950175108100C005D6
:1005F0000C0901A101850419012AA002150126A0F8
:1006000002950175108100C005010906A10185064A
:10061000050719E029E715002501950875018102F4
:100620000507190029EF1500250195F075018102D4
:1006300005081901290595057501910295017503B4
:100640009101C005010906A101050719E029E71577
:100650000025019508750181029501750881010544
:1006600007190029FF150026FF009506750881006F
:100670000508190129051500250195057501910247
:10068000950175039101C00011241FBECFEFDAE080
:10069000DEBFCDBF11E0A0E0B1E0EEE4F5E402C0C2
:1006A00005900D92A638B107D9F722E0A6E8B1E08F
:1006B00001C01D92AA3EB207E1F70E94D5120C9428
:1006C000A5220C940000509A519A529A539A269857
:1006D0002E9A22982A9A23982B9A2198299A8798B9
:1006E0008F9A86988E9A85988D9A84988C9A249859
:1006F0002C9A25982D9A8BB1807F8BB908950F93F2
:100700001F93CF93DF93EC0110E000E08BB1812BBE
:100710008BB90E94571283B11C3049F482958170C5
:100720001D9902C090E001C092E08C6F2EC086FB44
:10073000222720F91A9902C080E001C082E0822BB2
:100740001B9902C020E001C024E0822B199902C04D
:1007500090E001C098E0982B2FB1822F881F882746
:10076000881F8295807F892B7E9902C020E001C07E
:1007700020E2822B7D9902C020E001C020E4822B80
:100780007C9902C090E001C090E8892B80959BB1D4
:10079000907F9BB991E02881281301C090E0092B3C
:1007A00089931F5F103109F0B1CF802FDF91CF9176
:1007B0001F910F9108958330C8F46031B8F4483028
:1007C000A8F4E62FF0E090E1899FE00DF11D1124DF
:1007D00083E0EE0FFF1F8A95E1F7E40FF11DEE0FA6
:1007E000FF1FE855FE4F85919491089581E090E0B8
:1007F00008950E94DB03089581E0089581E0089543
:100800000E94FE0308950E94000408950E94FE03C2
:10081000089508950E9409040895A6E0B0E0E3E178
:10082000F4E00C94012249835A839E8330918D0118
:1008300089819A81311115C03E81332359F02223D9
:1008400049F00E945A0A182F682F89819A810E94C4
:10085000360A03C00E94480A182F69817A81812FC5
:1008600004C00E945A0A69817A810E943311269637
:10087000E3E00C941D22FC01262F4081518162810E
:100880007381848195810E940D040895CF93DF9335
:10089000EC0161E00E943B04BE010E940304DF9171
:1008A000CF910895CF93DF93EC0160E00E943B0469
:1008B000BE010E940A04DF91CF91089508950E941D
:1008C0000D090E945E042FEF84E39CE021508040DC
:1008D0009040E1F700C0000008950E945F040E946C
:1008E000131B08950E945F040E94241B08950F9318
:1008F0001F93CF93DF938C0161E00E943B04EC01D6
:10090000B8010E940604882309F442C0B801CE0150
:100910000E94AA188823E1F1B801CE010E94DA15DD
:100920008823B1F1B801CE010E941018882381F10B
:10093000F8018581882341F1C3308CE7D807D1F0D5
:1009400040F4C115FCE7DF0791F0C130DC47A1F0AE
:100950001BC0CB35ECE7DE07A9F0CC35FCE7DF07A1
:1009600071F0CA35DC4781F40E94890E0DC00E94E7
:100970006D040EC00E94910E0E94720409C00E9474
:100980007F0E02C00E948D0EC8010E94FC0301C0B0
:1009900080E0DF91CF911F910F9108950E948A1AF4
:1009A00008950E9410050E94931A0895089581E009
:1009B0000895809580FF02C05C9A01C05C9881FF19
:1009C00002C0769A01C0769882FF02C0469A01C0A2
:1009D000469883FF02C05F9A08955F980895CF9369
:1009E000DF93D82F0E94D704C82F882319F08D2FAA
:1009F0000E94D9048C2FDF91CF910895549A5C9A6C
:100A00006E9A769A3E9A469A579A5F9A0895CF932D
:100A1000C82F0E94D6048C2F0E94EF04CF91089516
:100A20000E94F2180E9407050895CF930E94F218C1
:100A3000C82F80918801C81779F0C09388010E945F
:100A4000D21A6093890170938A0180938B019093ED
:100A50008C018C2F0E940705CF910895ADE0B0E086
:100A6000E4E3F5E00C940222488759876A877B8784
:100A70008C879D8791110E94B30DCE01019627E0CE
:100A8000FC0111922A95E9F726E0FE013896DC0177
:100A900001900D922A95E1F72D8121110AC029813B
:100AA0003A814B815C816D817E818F810E94FD0C3A
:100AB00004C00E9446048111F2CF2D96E2E00C940E
:100AC0001E22FC012481213021F4808191810E9429
:100AD0008C0A0895662319F00E946D1302C00E94CB
:100AE000C8130E943F140895CF93882309F4A9C026
:100AF000C82F8238C1F40E94FF1881FDA2C069E3AB
:100B000080910001909101010E940A1A0E94DF0D5C
:100B10002FEF87EE93E0215080409040E1F700C036
:100B2000000069E319C0833801F50E94FF1880FDB9
:100B300088C063E580910001909101010E940A1A2A
:100B40000E94DF0D2FEF81EE94E021508040904015
:100B5000E1F700C0000063E5809100019091010180
:100B60000E94181A0E94DF0D6CC08438C1F40E94E4
:100B7000FF1882FD66C067E4809100019091010139
:100B80000E940A1A0E94DF0D2FEF81EE94E021509F
:100B900080409040E1F700C0000067E4DDCF8CEFBB
:100BA0008C0F813AF8F48C2F0E94C717811149C02D
:100BB0006C2F80910001909101010E948A19882375
:100BC00049F06C2F80910001909101010E94181A48
:100BD0000E94DF0D6C2F80910001909101010E9415
:100BE0000A1AC0CF80E28C0F883048F4C77081E0C9
:100BF00001C0880FCA95EAF70E94960DB3CFEBE5C6
:100C0000EC0FE33040F4F0E0E75BFE4F808190E0D2
:100C10000E942A1916C0E8E5EC0FEB3150F4F0E021
:100C2000EE0FFF1FED5EFE4F808191810E944F19F4
:100C300008C083E38C0F833120F461E08C2F0E9485
:100C40006A05CF910895882309F468C0823879F441
:100C50000E94FF1881FF62C069E3809100019091BA
:100C600001010E940A1A0E94DF0D69E310C0833857
:100C7000B9F40E94FF1880FF51C063E58091000124
:100C8000909101010E940A1A0E94DF0D63E5809194
:100C90000001909101010E94181A0E94DF0D089531
:100CA000843879F40E94FF1882FF38C067E480918D
:100CB0000001909101010E940A1A0E94DF0D67E471
:100CC000E6CF9CEF980F913A10F4682FE0CF90E2B6
:100CD000980F983050F4877091E001C0990F8A9571
:100CE000EAF7892F0E949C0DD8CF9BE5980F93308F
:100CF00028F480E090E00E942A19089598E5980F62
:100D00009B3128F480E090E00E944F19089593E30E
:100D1000980F933118F460E00E946A0508951F93BC
:100D2000CF93DF93182FEB010E947405209741F0B9
:100D30008FE99FE00197F1F700C000002197F6CFFF
:100D4000812F0E942306DF91CF911F91089589334F
:100D500019F060E070E002C060E570E00E948F066C
:100D60000895882321F00E94960D0E94DF0D0895BA
:100D7000882321F00E949C0D0E94DF0D0895A0E0C1
:100D8000B0E0E5ECF6E00C94FC217C01162FC72FB7
:100D9000FC01D581068102950F700E948C0D88237D
:100DA000E9F0DD23D9F08C2F807F803451F080E290
:100DB000810F883098F0011104C08C2F807E803222
:100DC00069F08091B80282FF09C082E00E94530E50
:100DD0000E948C0D91E0D82ED92601C0D12CCC2EAA
:100DE000C2948FE0C8228C2D90E08C30910508F0E1
:100DF0009FC1FC01EA5AFF4F0C94EC218C2F807F9D
:100E0000CF70882311F0C295C07FDD2399F0CC23E9
:100E100009F47AC180E2810F883010F0111104C00A
:100E20008C2F0E94960D03C08C2F0E94A60D0E944D
:100E3000DF0D6AC1812F0E942306CC2309F478C1FB
:100E400080E2810F883038F1112329F18C2F0E9424
:100E5000AC0D24C08C2F807FCF70803211F0C295F2
:100E6000C07F112319F0113099F13CC08091B80274
:100E700082FD17C0DD2349F0CC2329F08C2F0E947E
:100E8000960D0E94DF0D80E040C180E00E942306A5
:100E9000CC2309F44DC18C2F0E949C0D0E94DF0DC4
:100EA00047C1DD2349F0002309F1013009F040C1B9
:100EB0008C2F0E94BD0D3CC101113AC18C2F0E94A4
:100EC000B8068C2F0E94C90D8C2F0E94260E30C1AF
:100ED000DD2321F0063008F02BC108C0053008F0F2
:100EE00027C115C0DD2331F001110EC18C2F0E94E6
:100EF000B1061EC1002359F0193309F016C1FFEFE6
:100F000027EE83E0F15020408040E1F70CC18C2FA8
:100F10000E94B8060DC18C2F86958695837019F0B6
:100F2000813061F005C1DD2321F0812F9C2F93706A
:100F300002C080E090E00E942A1902C1DD2321F066
:100F4000812F9C2F937002C080E090E00E944F1987
:100F5000F7C06D2F812F0E946A05F2C08C2F83701D
:100F6000B1F5D111E9C0412F429546954770440F24
:100F7000440F812F8F7090E09C01042E02C0220F3D
:100F8000331F0A94E2F714FF0AC08FE090E002C01A
:100F9000880F991F4A95E2F78095909502C080E0EE
:100FA00090E0C695C695C370822B932BC23049F052
:100FB00058F4C13019F00E946909BEC00E9460094E
:100FC000BBC00E947209B8C00E945D09B5C0DD2394
:100FD00019F08C2F817001C08695882309F4ACC06C
:100FE000412F429546954770440F440F812F8F70D3
:100FF00090E09C01042E02C0220F331F0A94E2F7F6
:1010000014FF0AC08FE090E002C0880F991F4A9534
:10101000E2F78095909502C080E090E0C695C69575
:10102000C370822B932BC23049F058F4C13019F0B1
:101030000E94D10981C00E94C8097EC00E94DA09BD
:101040007BC00E947E0978C0CF70DD2339F08C2FE1
:101050000E949609812F0E94B1066EC0812F0E94C6
:10106000B8068C2F0E94A60967C0123F21F128F410
:10107000103F41F0113FC1F043C0133F19F1143F3D
:1010800079F03EC0DD2341F0053008F051C08C2FCF
:101090008F710E94B8094CC0063008F049C0F7CFE4
:1010A0008091B80282FD18C0DD2339F08C2F8F713A
:1010B0000E9496093DC0DD23C9F38C2F8F710E94D9
:1010C000A60936C0DD2329F08C2F8F710E948A0972
:1010D0002FC00E9485092CC0DD2349F0CF718C2FD1
:1010E0000E94960963E08C2F0E94350E21C081E09A
:1010F0000E94530E0230E0F082E00E94530E18C0AE
:10110000DD2331F0002391F2812F0E94740510C07D
:10111000002399F2193349F49FEFE7EEF3E0915081
:10112000E040F040E1F700C00000812F0E9423065C
:1011300088EF8C0D843020F40E94F2180E9407057D
:10114000DD2089F00E94880D80FD0DC0F701158219
:101150000E94820D0E949609C7010E94D0080E9439
:10116000820D0E94A609CDB7DEB7E8E00C941822E4
:101170000F931F93CF93DF93EC01688179818D8169
:101180000E94970A8C010E94E3090E944E09B8014F
:10119000CE010E94BF06DF91CF911F910F9108955C
:1011A000CF93DF93FC0124812223D1F0EC010E9434
:1011B000770481110FC00E948C0D882389F08D81E6
:1011C000882371F08091B80282FF0AC082E00E94F9
:1011D000530E06C0CE010E94B808CE010E945204F0
:1011E000DF91CF91089580E090E00E942A1980E07D
:1011F00090E00E944F190E94B30D0E94DF0D0E94E3
:101200005E140E943F1408958091000190910101A5
:101210000E94261A0E94F30808950E94A30D0E94BE
:101220000409089592959F70963079F010F49250C9
:1012300001C09A50923068F4803F69F018F4883EFB
:1012400040F409C0843F29F406C0883E20F0813F65
:1012500011F080E0089581E00895FC0124812223AB
:1012600039F0808191810E948C0A0E9412090895B0
:1012700080E00895A6E0B0E0E0E4F9E00C940222FA
:101280002696E2E00C941E22A7E0B0E0EAE4F9E042
:101290000C9402222796E2E00C941E2208950895F1
:1012A0000E944F0908950E94500908950E94530911
:1012B0009093D1018093D00108950E94560908951A
:1012C0002091D0013091D101822B932B0E9456099D
:1012D00008952091D0013091D101822393230E945F
:1012E000560908952091D0013091D101822793278A
:1012F0000E94560908950E944F0908950E947B0993
:101300009093CF018093CE01089580E090E00E94F9
:101310007E09089521E030E0A90102C0440F551F65
:101320008A95E2F7CA010E947E09089521E030E023
:1013300002C0220F331F8A95E2F78091CE0190916F
:10134000CF01822B932B0E947E09089521E030E08B
:1013500002C0220F331F8A95E2F7209530958091C5
:10136000CE019091CF01822393230E947E0908959C
:1013700021E030E002C0220F331F8A95E2F780910E
:10138000CE019091CF01822793270E947E09089574
:101390002091CE013091CF01822B932B0E947E09A8
:1013A00008952091CE013091CF01822393230E9492
:1013B0007E0908952091CE013091CF018227932795
:1013C0000E947E0908950895962F9770A1E001C0AC
:1013D000AA0F9A95EAF793E0769567959A95E1F7C3
:1013E000660F771F660F771FFA01E60FF71F40E0C1
:1013F00050E0682F70E090819B01042E02C036956A
:1014000027950A94E2F72170219529272A23292775
:1014100021934F5F5F4F4430510569F70895FB01F9
:10142000782F777023E0969587952A95E1F7880FB6
:10143000991F880F991FE80FF91F40E050E080E0E6
:10144000219130E0072E02C0369527950A94E2F7E5
:1014500021703327042E01C0220F0A94EAF7822B51
:101460004F5F5F4F4430510559F70895282F903151
:1014700070F4883060F4862F622F70E028E0929F2D
:10148000600D711D11244EE851E00E94E409089599
:10149000903170F4883060F4292F90E06EE871E0AC
:1014A00038E0239F800D911D11240E940F0A08959A
:1014B00080E00895A0E0B0E0E0E6FAE00C94FB21C3
:1014C0007C010091CE011091CF018091D0019091CB
:1014D000D101082B192BCFE0D0E0CC24C394D12C20
:1014E000C6010C2E02C0880F991F0A94E2F78023D0
:1014F0009123892B21F4219798F7B12C07C0BC2E9A
:10150000B7018C2F0E943F110197A9F38B2DCDB706
:10151000DEB7E9E00C941722CF93DF93EC010E9431
:101520005A0ABE010E943F11DF91CF9108951F9387
:10153000CF93DF93EB0190918D01992321F0CB01A3
:101540000E948C0A13C0882349F0CB010E945A0ADA
:10155000182F682FCE010E94360A04C0CB010E94CA
:10156000480A182FBE01812F0E943F11DF91CF91B1
:101570001F9108951F93CF93DF93C091D20117E07D
:101580008091D301C817A1F0D0E01C9FF0011D9FEE
:10159000F00D1124EC52FE4F2081318142815381A4
:1015A0006481758186810E9444092196C770E8CFC5
:1015B000DF91CF911F91089520910C0230910D027F
:1015C00040910E0250910F02609110027091110231
:1015D000809112020E9444090895CF93DF93809175
:1015E000120282958F7009F04EC0809111028823FB
:1015F00009F449C08091D2014091D30150910D026C
:1016000060910C02C0910E02D0910F0277E0841716
:10161000D1F190E0789FF001799FF00D1124DF0166
:10162000AC52BE4F14962C911497222349F1119677
:101630002C911197251324C02C91261321C01596A7
:101640002C91159721111CC012962D913C91139746
:101650002C1B3D0B283C310598F4809112028F70B1
:10166000806180931202E652FE4F80818F7080610C
:1016700080838CE092E00E94D0080E94BA0A03C0E6
:1016800001968770C4CFDF91CF9108952091D20148
:101690009091D30157E02917A9F030E0529FF00153
:1016A000539FF00D1124EC52FE4F7181761306C04A
:1016B0007081781303C07581741306C02F5F3F4F8C
:1016C0002770E9CF80E0089581E00895A4E1B0E0BB
:1016D000ECE6FBE00C94F8218C0186E0F801DE01D9
:1016E0001F9601900D928A95E1F7D80114968C917E
:1016F00014971596EC909CE0A92E92E0B92E90914B
:101700001002911118C0882309F470C1EE20D9F19C
:10171000C8010E942D09F82E8823A9F187E0F8015D
:10172000D50101900D928A95E1F7C5010E946105EE
:101730000E94ED0A56C1F801C080D180828093805A
:10174000F090110220910E0230910F02FF2009F457
:1017500010C1A401421B530B483C510508F0B6C010
:10176000882309F445C180911202282F207F90918F
:101770000D02222361F09D1509F46BC0C8010E947F
:101780002D0981117AC0C8010E94D0082FC19D1176
:1017900016C090910C029C1112C0E11010C08F7005
:1017A0008061809312020E94DC0A8CE092E00E9429
:1017B000D00880911202D80116968C9315C1E110C1
:1017C0003AC040E06D2D8C2D0E94460B40E06D2DFF
:1017D0008C2D0E94460BE82E811106C1CF86D88A37
:1017E0008F8598890E948C0A292F22952F7024308A
:1017F00020F49F70223028F009C02A50223080F057
:1018000014C0992349F0811107C013C0992321F016
:10181000F8019681907F69F0805E883030F409C0CD
:10182000803F38F0815F833020F0C8010E94D008EB
:10183000EF2CFE2CDDC08091120281608093120299
:101840008CE092E00E94D008ECE0F2E087E0DF015B
:1018500050C090910C029C1191CFE1108FCFF801F4
:101860008683C8010E94D00887E0F801ACE0B2E0AE
:1018700001900D928A95E1F7B4C0EE2009F483CF70
:1018800020911202822F82958F7090E002978CF047
:1018900080910C0290910D02998788879B868A8699
:1018A000809110028C871D862E87CE0108960E949B
:1018B000D00887E0F801ACE0B2E001900D928A9583
:1018C000E1F70E94ED0A0E94DC0A90C0909112029A
:1018D000292F207FA1F4682D9A8A898AA6017A8906
:1018E0009E2D0E943A098CE092E00E94D00887E089
:1018F000D5011D928A95E9F70E94DC0A75C08823FC
:1019000009F476C080910D028D1111C080910C02F6
:101910008C110DC0E1100BC0F8019683C8010E9424
:10192000D00887E0D5011D928A95E9F761C0C8010A
:101930000E942D09882309F426CFEE2009F423CF35
:1019400020911202822F82958F7090E002970CF402
:10195000B0CF80910C0290910D029A8389839C8272
:101960008B82809110028D831E822F83CE0101967F
:101970009ECFF401E21BF30BE83CF10528F5882328
:10198000A9F1FE2CEE2009F4FECE80910D02D812B2
:101990000DC080910C028C1109C087E0F801ACE009
:1019A000B2E001900D928A95E1F722C0C8010E9431
:1019B0002D0981117ECF80911202816080931202E5
:1019C000C8010E94D00814C0682D9A8A898AA6018D
:1019D0007A899E2D0E943A0987E0D5011D928A9549
:1019E000E9F70E94DC0A04C0F12C02C0FF24F39442
:1019F0008F2D6496ECE00C941422AEE0B0E0E3E0AE
:101A0000FDE00C940122288739874A875B876C8721
:101A10007D878E87CE0108960E94660B882361F031
:101A20006C856623A9F1288539854A855B857D8586
:101A30008E850E9444092CC087E0FE013896DE01A5
:101A4000119601900D928A95E1F76C85662301F15C
:101A50002091D30130E0C901019687709927409108
:101A6000D20150E084179507E1F16D8397E0929FD2
:101A7000D001939FB00D1124AC52BE4FFE013196A0
:101A800001900D929A95E1F78093D3010E94BA0AD2
:101A900017E08091D2019091D301891779F1189FB5
:101AA000C00111248C529E4F0E94660B882331F195
:101AB000E091D2011E9FF0011124EC52FE4F2081D3
:101AC0003181428153816481758186810E944409FC
:101AD0008091D20190E00196877099278093D2017E
:101AE000D8CF0E940D091092D3011092D201ECE0E0
:101AF000F2E087E0DF011D928A95E9F72E96E3E098
:101B00000C941D22809133028695869586950895C2
:101B1000809133028770089590913302977081E02D
:101B200009F480E00895809157020895909157023A
:101B3000892B8093570208958095909157028923AD
:101B4000809357020895109257020895909156027B
:101B5000892B80935602089580959091560289238F
:101B600080935602089510925602089508950E9497
:101B7000B60D08950E94B70D089590913502292F52
:101B80002823821729F0982B909335020E94BA0DD2
:101B9000089590913502292F282331F080958923CB
:101BA000809335020E94BA0D0895809135028823F2
:101BB00029F01092350280E00E94BA0D0895CF936B
:101BC000DF93E0910001F091010180915702808341
:101BD000E0910001F0910101908180915602892BE2
:101BE000808380913502882381F0E0910001F0919B
:101BF00001019081892B80838091000190910101E6
:101C00000E94741981110E94D50DC0910001D091DC
:101C1000010140E250E063E172E0CE010E943D220A
:101C2000892B59F080E2FE01A3E1B2E001900D9210
:101C30008A95E1F7CE010E940219DF91CF910895B4
:101C40000E94B60D08950E94200E089590913402CE
:101C5000292F282331F080958923809334020E9414
:101C6000230E08950E94B60D08959091B80292FF38
:101C700011C098E0899F90011124262B20933302F4
:101C80000E949609809133028695869586950E94DA
:101C9000320E08950E94960908951092330280E052
:101CA0000E94320E0895909133028095892380938B
:101CB0003302282F277069F4981759F09091B802D1
:101CC00092FF07C08695869586950E94A6090E9478
:101CD0004D0E08959091B80292FB222720F9281703
:101CE00069F080FB92F99093B8028091B7029091CD
:101CF000B8020E94B20E82E00E94530E08958091B5
:101D0000B80282FB882780F991E089270E946A0E39
:101D1000089581E00E946A0E089580E00E946A0E94
:101D200008956FEF7FEF80E090E00E948F2208958A
:101D300080E090E00E945B2221E0863E9E4F09F009
:101D400020E0822F089582E090E00E9453220895BF
:101D500083E090E00E945322089584E090E00E9486
:101D60005B220895BC0184E090E00E948F220895D8
:101D7000AB01BC018FE090E00E9483220895AB018B
:101D8000BC0183E190E00E948322089560E070E04E
:101D9000CB010E94BF0E089560E070E0CB010E946D
:101DA000B80E0E94C60E0895A8E0B0E0EAEDFEE08D
:101DB0000C94022266EE7EEF80E090E00E948F227B
:101DC00060E082E090E00E94712260E083E090E0B9
:101DD0000E9471221092D1011092D00160E074E152
:101DE00084E090E00E948F2260E086E090E00E9414
:101DF00071226FEF87E090E00E94712240E050E096
:101E0000BA0188E090E00E94832260E084E290E0E2
:101E10000E94712260E087E190E00E94712260E000
:101E20008CE090E00E94712260E08DE090E00E94E2
:101E3000712219821A821B821C821D821E821F82BD
:101E4000188648E050E068E170E0CE0101960E94FB
:101E5000612240E050E0BA0180E290E00E948322DB
:101E60000E94CC0E2896E2E00C941E220E94D40E12
:101E70000895682F8EE090E00E9471220895A6E0F8
:101E8000B0E0E5E4FFE00C9400220E94C61A8C0149
:101E900080915802909159020817190781F0198210
:101EA0001A820E94C61A682F49815A81792F80E0D0
:101EB00090E00E942E051093590200935802269636
:101EC000E4E00C941C220E94D21A60936E0270937C
:101ED0006F02809370029093710260936A02709314
:101EE0006B0280936C0290936D02089581E00895D7
:101EF00081E008950E94780F089508950E947D0F53
:101F000008950E947D0F08950E94810F08950E94F8
:101F10007D0F08950E94870F08950E947D0F0895F8
:101F20008FE292E10E94E2120E948D0F0E948A0FBE
:101F300008950E947E0F0E947D0F08950E94321224
:101F40000E94FE0408950E94BD1A0E9468120E9419
:101F50009E0F0E946E150E94840F0895A6E0B0E0C7
:101F6000E4EBFFE00C94F9210E94760F811103C08D
:101F70000E943F0F53C00E947A128AE5E82E82E049
:101F8000F82E670100E0F60111916F01802F0E9489
:101F9000501281270F5F003119F08823A1F302C08E
:101FA000882331F38091720281FD0E9456120E94B3
:101FB0007A0FA82E10E099249394812F0E9450123A
:101FC000B82EF701C080C82609F100E0DD24D394C3
:101FD0008C2D8D21A9F0AA2099F009831A830E94E3
:101FE000C61A9C838B839D8291E08B2D8D2109F4F1
:101FF00090E049815A816B817C818D810E942E0500
:102000000F5FDD0C083021F7F701B0821F5FFFEF93
:10201000EF1AFF0A103189F60E94630F0E948014A4
:102020000E9415052696EBE00C9415221F93CF9382
:10203000DF930E944411EC01C11580E5D807E8F553
:10204000C11590E4D90708F0A8C0C03ED10530F50D
:10205000CD3CD10508F094C0C83AD10578F4C53A12
:10206000D10508F083C0C130D10509F47CC008F463
:10207000F2C0C430D10508F0F1C0EDC0C33CD105B9
:1020800008F0E9C0C85AD0E0CC0FDD1FC45BDE4FBA
:102090000990D881C02DCE019464E1C0C11580E2C1
:1020A000D80708F0CBC0C11591E0D90708F06BC084
:1020B000C83ED10508F4D2C0CEC0C03682E5D807EC
:1020C00028F5C03492E5D90708F079C0C03282E51E
:1020D000D80708F06CC0C11592E5D90708F481C093
:1020E0004C2F4695469580E2489FA0011124C3706D
:1020F00021E030E0C90102C0880F991FCA95E2F7BC
:10210000EA01C82BD92BCE019D68A9C0C03A82E54F
:10211000D807B8F48C2F8F71C03892E5D90708F032
:102120007BC08695869590E2899F90011124C370AB
:1021300081E090E002C0880F991FCA95E2F79A6883
:1021400068C0C03C82E5D80708F46DC0C03E92E587
:10215000D90708F080C0CF71DD27DC2FCC27CE0156
:10216000806F906A7CC081E090E079C0C55AD0E071
:10217000CE57DE4F8881C82FD0E0CE0190646FC06B
:10218000CE0190656CC08D2F0E94E011182FCE01FA
:1021900099270E9444111F715CC0CE0199270E94AB
:1021A0004411CC27DF70D06A8C2B9D2B58C0CF7187
:1021B000D0E0DC2FCC27CE01816F906A50C08C2FED
:1021C0008F718695869590E2899F90011124C37046
:1021D00081E090E002C0880F991FCA95E2F79C68E1
:1021E00018C08C2F8F710E94E01195E0D695C7958D
:1021F0009A95E1F7CF70D0E0DC2FCC27282F30E084
:1022000084FF05C084E0220F331F8A95E1F7D0696F
:10221000CE01822B932B23C090E0D82FCC27CE0168
:10222000846F906A1CC08C2F8F710E94E0118F7197
:1022300090E0D82FCC27CE01906211C08D2F8F71E6
:102240000E94E011182FCE0199270E9444111F719E
:102250009062912B04C080E090E001C0CE01DF913C
:10226000CF911F910895703138F4683028F4462FCB
:10227000672F0E94F903089580E090E008950E947E
:1022800033110E94161008958238910569F1B0F457
:102290008133910509F475C048F48932910509F438
:1022A00067C08A32910509F471C00895853391059C
:1022B00009F459C089339105B9F00895833E910519
:1022C00089F138F4803E9105D1F0823E910529F1E3
:1022D0000895863E9105C9F1873E9105D9F1843E66
:1022E000910509F06CC027C02091B70220FD57C0AE
:1022F00021FD55C02091B80223FD5BC00895809157
:10230000B70280FD48C08091B80280FF48C080912C
:10231000B70284FD46C083EE51C08091B70282FFB0
:102320003CC0F5CF8091B70282FD37C08091B802E2
:1023300080FD35C0ECCF8091B80281FF36C080911E
:10234000B70284FD2EC087EE39C08091B70283FFAB
:102350002AC0F5CF8091B70283FD25C08091B802D5
:1023600081FD23C0ECCF8091B70285FD22C01FC044
:102370008091B70285FD1BC08091B80283FF19C010
:102380000AC08091B70286FD16C017C08091B702BF
:1023900086FD13C010C089E311C082EE0FC080EE2D
:1023A0000DC080E00BC086EE09C084EE07C085E357
:1023B00005C089E203C08AE201C081E390E008958C
:1023C0009091B70292FF10C041E0282F2471243071
:1023D00009F040E031E0282F2871283009F030E082
:1023E000431711F02CE0822793FF10C041E0282F03
:1023F0002471243109F040E031E0282F2871283180
:1024000009F030E0431711F02CE082273091B80238
:1024100030FF10C051E0282F2171213009F050E029
:1024200041E0282F2871283009F040E0541711F0BE
:1024300029E0822731FF10C041E0282F217121318E
:1024400009F040E031E0282F2871283109F030E010
:10245000431711F029E0822794FD877E089580E0DC
:10246000089508950E94980E811102C00E94360FAF
:102470000E94A30E809372020E94AD0E9093B80248
:102480008093B7020E9431120E94A80E90E00E9431
:102490005D098091CE019091CF010E947B09089542
:1024A000E82FF0E0E753FD4F80810895089580EA1A
:1024B0008A95F1F7089508950E945B1208950E948D
:1024C0005C1208950E945B1208950E9462120895A2
:1024D0000E946303E9EBF2E0A9ECB2E011921D92D5
:1024E00082E0E93CF807D1F780E10E948D120E945A
:1024F00065120895CF9389EB92E00E947F03282F05
:1025000040E169EC72E089EB92E00E948E12C82FE4
:102510000E945F128C2FCF9108950895EF92FF9241
:102520000F931F93CF93DF937C018B01C42F222342
:1025300049F081E0809375020E94C61A909374025C
:102540008093730280917502811102C080E01AC0ED
:1025500080917302909174020E94DE1A0A97B0F380
:10256000D0E0AE01B701C8010E943D22892B39F0AD
:10257000AE01B701C8010E944A2281E001C080E09B
:1025800010927502CDB7DEB7E6E00C941A220E94D5
:10259000A61C0E94A30F0E94B31C08950E94B81CA1
:1025A0000E94AE0F0E94D21C08950E94AA1A0E9497
:1025B0008C1C0E94900F0E94C7120E94CE120E9493
:1025C000990FFBCF90938701809386010895282F60
:1025D00035EB2303C001112497FF03C080589109F4
:1025E00002C080589F4F892F089580917C0280FF00
:1025F00006C06091070170E0660F771F26C081FF5B
:1026000004C06091070184E005C082FF07C06091AB
:10261000070188E0689FB001112417C090917B02E8
:102620009923D1F060910601961788F72091070150
:1026300088E0289F90011124929FA001939F500D44
:10264000112470E0CA010E94D8216038710540F45D
:102650006115710519F406C068E070E0862F0895D1
:102660008FE7089581E0089580917C0280FF08C083
:102670006091030170E0759567957595679521C028
:1026800081FF06C06091030170E07595679519C0E0
:1026900082FF04C06091030170E010C090917A0243
:1026A000992399F0609102019617A0F78091030198
:1026B000899FC001112470E00E94D8216038710503
:1026C00040F46115710519F406C061E070E0862FD1
:1026D00008958FE7089581E008958D3C21F40E94CC
:1026E000F512819504C08E3C29F40E94F512809366
:1026F000800208958F3C21F40E94F512819504C058
:10270000803D29F40E94F51280937F020895893D4F
:1027100019F40E94341305C08A3D31F40E94341329
:1027200081958093810208958B3D21F40E9434139A
:10273000819504C08C3D29F40E9434138093820259
:1027400008959FE2980F983078F421E030E0A901D5
:1027500002C0440F551F9A95E2F7CA0190917E027C
:10276000892B80937E0208958D3D21F480917C0217
:1027700081600BC08E3D21F480917C02826005C097
:102780008F3D29F480917C02846080937C020895BF
:102790008D3C39F49091800297FF35C010928002F1
:1027A00059C08E3C29F4909180021916BCF32BC0BD
:1027B00090917F028F3C29F497FF25C010927F02F1
:1027C00049C0803D19F41916CCF31DC090918102C7
:1027D000893D29F41916BCF4109281023BC08A3D50
:1027E00019F497FF10C0F8CF8B3D39F49091820215
:1027F00097FF09C0109282022DC08C3D21F4909168
:1028000082021916BCF39FE2980F983080F421E001
:1028100030E0A90102C0440F551F9A95E2F7CA01A2
:10282000809590917E02892380937E0213C08D3D16
:1028300021F480917C028E7F0BC08E3D21F480912B
:102840007C028D7F05C08F3D29F480917C028B7FB7
:1028500080937C0280917F02811106C0809180026A
:10286000811102C010927B0280918102811106C009
:1028700080918202811102C010927A0208950E9412
:10288000C61A20917F02211104C0209180022223C8
:1028900021F0909379028093780220918102211196
:1028A00004C020918202222321F09093770280932A
:1028B00076028DE792E00E941C190895EDE7F2E0A0
:1028C00086E0DF011D928A95E9F710927B02109253
:1028D0007A0210927C020895FC01828181110DC060
:1028E000838181110AC08481811107C091E08581B3
:1028F000811101C090E0892F01C081E081700895AD
:10290000A6E0B0E0E6E8F4E10C94012286E0EDE711
:10291000F2E0DE01119601900D928A95E1F7109296
:102920007F021092800210928102109282028B81AB
:10293000811104C08C81882309F456C080917802EB
:10294000909179020E94DE1AAC0190917B0299234A
:1029500039F02091080130E02417350758F044C0C1
:10296000209109018AE0289F90011124241735073E
:1029700018F03AC09F3F19F09F5F90937B021B8134
:10298000112361F00E94F512111614F09FEF01C09F
:1029900091E0989F902D112490937F021C81112328
:1029A00061F00E94F512111614F09FEF01C091E042
:1029B000989F902D11249093800280917F0288230C
:1029C00099F010918002112379F00E94E712811191
:1029D00001C081E080937F02812F0E94E712811164
:1029E00001C081E0809380028D81811104C08E81BD
:1029F000882309F456C080917602909177020E9454
:102A0000DE1AAC0190917A02992339F020910401E9
:102A100030E02417350758F044C0209105018AE0C2
:102A2000289F900111242417350718F03AC09F3FC2
:102A300019F09F5F90937A021D81112361F00E942B
:102A40003413111614F09FEF01C091E0989F902D60
:102A50001124909381021E81112361F00E9434138E
:102A6000111614F09FEF01C091E0989F902D112452
:102A70009093820280918102882399F010918202C2
:102A8000112379F00E94E712811101C081E0809347
:102A90008102812F0E94E712811101C081E08093A1
:102AA0008202BE016F5F7F4F8DE792E00E94381A6D
:102AB000811105C08DE792E00E946C1481110E9483
:102AC0003F1486E0FE013196ADE7B2E001900D9231
:102AD0008A95E1F72696E3E00C941D22E1E8F0E008
:102AE0008081886080838081816080838FB7F89443
:102AF00020ED33E030938900209388008FBF089544
:102B0000EFE6F0E08081826080830895EFE6F0E0F8
:102B100080818D7F80830895EFE6F0E0908182E0F0
:102B20008927808308951F920F920FB60F92112468
:102B30002F933F934F935F936F937F938F939F93C5
:102B4000AF93BF93EF93FF9380918402909185029E
:102B500001969093850280938402811107C0809131
:102B600083028260809383020E940705E0918502C0
:102B7000E695E695F0E0E855FB4FE49180918402FC
:102B80008E1307C0809183028D7F809383020E9401
:102B90000705FF91EF91BF91AF919F918F917F9129
:102BA0006F915F914F913F912F910F900FBE0F90BA
:102BB0001F901895CF93DF93FC01DB0115968C9144
:102BC000882309F4DDC09F0130572332310508F016
:102BD000D8C0EF010E94AD0E9093B8028093B70267
:102BE000FE01E150F047E232F10520F4EE59FF4FCB
:102BF0000C94EC218091B7028160AAC08091B80248
:102C00008860B2C08091B7028260A2C08091B70292
:102C100020C08091B70288609BC08091B8021EC01E
:102C20008091B8028260A0C08091B702806190C09C
:102C30008091B70280628CC08091B702806488C0A6
:102C40000E940D098091B702806882C08091B7020E
:102C5000886084607DC08091B8028260816084C099
:102C60008091B7028E7F74C08091B802877F7CC04C
:102C70008091B7028D7F6CC08091B70220C0809197
:102C8000B702877F65C08091B8021EC08091B802EC
:102C90008D7F6AC08091B7028F7E5AC08091B70243
:102CA0008F7D56C08091B7028F7B52C00E940D0964
:102CB0008091B7028F774CC08091B702877F8B7F5E
:102CC00047C08091B8028D7F8E7F4EC08091B70241
:102CD00082FB222720F991E0922790FB82F990FB5A
:102CE00083F936C08091B802982F909591708E7FAD
:102CF000892B90FB81F938C08091B70286FB22278F
:102D000020F991E0922790FB86F922C00E940D09DC
:102D10008091B70287FB222720F991E0922790FB50
:102D200087F916C081E001C080E00E94390F1EC003
:102D30008091B70284FB222720F991E0922790FB33
:102D400084F906C08091B702982F909590FB80F986
:102D50008093B7020BC08091B80283FB222720F931
:102D600091E0922790FB83F98093B8028091B7029B
:102D70009091B8020E94B20E0E940D0980E001C03D
:102D800081E0DF91CF910895893281F1E8F48431B7
:102D900069F1A8F4873009F076C086E080930901D4
:102DA00084E18093080184E0809307018AE08093A6
:102DB000060181E0809303018093020164C092EEDA
:102DC000980F9A30F0F05FC0803509F444C028F4C1
:102DD0008F3409F058C08AE03FC0813529F0823530
:102DE00009F051C081E038C08FEF36C08091880271
:102DF000882379F11092880210928702109286023D
:102E000042C08D5180938802833099F038F481302C
:102E100069F08230D9F488E091E00DC0853099F0F6
:102E200078F0863099F482E091E005C089E091E085
:102E300002C087E091E0909387028093860223C0CE
:102E400086E091E0F8CF83E091E0F5CF1092880220
:102E50001AC080E0089586EFE0918602F091870223
:102E6000309789F02081082E000C990B820F911D5C
:102E70008F3F910519F014F08FEF04C097FF02C047
:102E8000108201C0808381E00895482F50E0FA014C
:102E90003597EF33F10508F073C0EC57FF4F0C94F2
:102EA000EC210E948C150E94F2180E94070566C052
:102EB0000E94360F63C080917202817F8E7F809363
:102EC000720281E08093890208950E946D0456C0C9
:102ED00080917202982F9095917090FB80F9809369
:102EE000720291114BC0897F877F10C0809172025E
:102EF00081FB222720F991E0922790FB81F98093B2
:102F000072029923D9F180917202816080937202DA
:102F100035C08091720282FB222720F991E092272E
:102F200090FB82F9ECCF8091720283FB222720F97B
:102F300091E0922790FB83F9E2CF0E940D098091E6
:102F4000B70287FB222720F991E0922790FB87F9AF
:102F50008093B70213C0895301C08D5121E030E046
:102F6000A90102C0440F551F8A95E2F7CA0102C0A9
:102F700081E090E00E945D090E940D0981E00895C2
:102F800080E0089580E008950E94C2170895CF93CD
:102F9000C82F80918902813069F038F08230C1F504
:102FA0008C2F0E94C41681E039C00E94930D82329A
:102FB00089F504C00E94930D823261F48C2F0E9427
:102FC000C417811104C08C2F0E9445171FC081E0D7
:102FD00090E01CC08C2F0E94C217811116C0C43112
:102FE00089F058F4CB3089F0C031B1F482E080939D
:102FF000890288E30E94C41608C0C93219F0C83398
:1030000021F00AC01092890207C081E0817006C0D9
:103010001092890280E002C080E0F8CFCF9108953D
:10302000CF93DF9386319C4741F5EB010E94930DCE
:10303000982F8D812091000130910101882379F032
:103040009A7A81E009F480E080938A02911102C0AB
:1030500069E201C065E3C9010E940A1A0AC08091B1
:103060008A02811102C069E201C065E3C9010E94C0
:10307000181A0E94DF0D80E001C081E0DF91CF913E
:1030800008950F931F93CF93DF93C42FD22FFC018A
:1030900085818823B1F040938D020E94C61A9093D7
:1030A0008C0280938B0280E28C0F883008F04DC038
:1030B000C77081E001C0880FCA95EAF70E94B10687
:1030C00044C080918D02481330C080918B02909152
:1030D0008C020E94DE1A883C910538F510E21D0F23
:1030E000CD17B9F080E28C0F883040F4C77081E0D2
:1030F00001C0880FCA95EAF70E94B806183010F58B
:1031000081E09D2F977001C0880F9A95EAF70E9481
:10311000B106802F0E94A7061830B8F4D77081E05E
:1031200001C0880FDA95EAF70AC080E28C0F883078
:1031300060F4C77081E001C0880FCA95EAF70E9469
:10314000B80603C0802F0E94A706DF91CF911F9180
:103150000F9108950F93FC01E851FC47E730F1050A
:1031600090F5CB01ED53FF4F0C94EC2106E221EEDC
:1031700041EE6AE17CE723C007E225EE45EE6BE114
:103180007CE71DC006E221EE40EE68E17CE717C057
:1031900007E225EE44EE69E17CE711C006E221EE8C
:1031A00042EE6CE17CE70BC007E225EE46EE6DE1F6
:1031B0007CE705C008E221E045EE6EE17CE70E9475
:1031C000411880E008C0FB018581882319F0109226
:1031D0008D0201C081E00F91089590939302809336
:1031E00092020895E0919202F0919302309729F0B3
:1031F0000190F081E02D0995089580E008950E94E6
:10320000F2180895FC01A0919202B09193021097D8
:1032100091F080911201882341F08091B70287FFDD
:1032200004C08081818386E08083CF011296ED9176
:10323000FC91139709950895E0919202F091930201
:10324000309739F022E0DC012C930480F581E02DE9
:1032500009950895A3E0B0E0E0E3F9E10C940222BF
:10326000209190023091910228173907A1F0909394
:10327000910280939002E0919202F0919302309734
:1032800051F023E029839B838A830680F781E02D18
:10329000CE01019609952396E2E00C941E22A3E04C
:1032A000B0E0E5E5F9E10C94022220918E02309124
:1032B0008F0228173907A1F090938F0280938E0216
:1032C000E0919202F0919302309751F024E029832B
:1032D0009B838A830680F781E02DCE0101960995B4
:1032E0002396E2E00C941E22FC013296809112019A
:1032F000882331F08091B70287FF02C09EE101C0B0
:1033000096E080E0915028F021912223D9F38F5F3D
:10331000F9CF0895662351F1209112012223E9F09B
:103320002091B70227FF19C0462F4695469546952E
:103330004E31E0F4677021E030E002C0220F331F0D
:103340006A95E2F7FC01E40FF11D828190E02823E9
:10335000392381E0232B69F409C0FC0132960896D9
:103360002191621729F0E817F907D1F780E0089555
:1033700081E008959C01FC0132969FEF80E041912D
:10338000461789F09F3F19F4411101C0982F8F5FB4
:103390008630A9F79F3F39F0F901E90FF11D97FD3C
:1033A000FA956283089508959C012A5F3F4FFC01BE
:1033B0004281461301C01282019682179307B9F722
:1033C0000895262F2695269526952E3168F4FC0122
:1033D000E20FF11D677021E030E001C0220F6A9515
:1033E000EAF78281282B22830895262F2695269599
:1033F00026952E3170F4FC01E20FF11D677021E07B
:1034000030E001C0220F6A95EAF7209582812823D7
:103410002283089520911201222339F02091B702CE
:1034200027FF03C00E94E11908950E94BA19089568
:1034300020911201222339F02091B70227FF03C007
:103440000E94F51908950E94D4190895209112013F
:10345000FC013296222331F08091B70287FF02C02F
:103460008EE101C086E0DF011D928A95E9F708959B
:10347000DC01FB0111969C9111978181981321C069
:1034800012968C911297882319F09281891319C092
:1034900013968C911397882319F09381891311C087
:1034A00015968C911597882319F09581891309C079
:1034B00014969C91992339F081E02481291304C04A
:1034C00002C081E001C080E08170089508950E94EB
:1034D000661A089583E0809394020E94671A089503
:1034E000811102C081E001C082E0809394020E94B9
:1034F000671A08950E94701A089581E080939402DB
:103500000E94671A08950E947D1A089508950E94E6
:10351000861A08950E94871A08950E94861A0895AF
:103520000E94861A08950E94861A0895CF930E94D9
:10353000901A0E947A120E948D1AC0E08C2F0E946D
:103540005012811104C0CF5FC031C1F701C081E0CA
:10355000CF91089585B7806885BF85B7806885BF9E
:1035600008958091E102843011F00E94CE04089504
:103570000E940D090E94D104089582E084BD93E069
:1035800095BD9AEF97BD80936E0008952FB7F8947C
:103590008091D9029091DA02A091DB02B091DC0215
:1035A0002FBF08952FB7F8946091D9027091DA0275
:1035B0008091DB029091DC022FBF08959C014FB7F0
:1035C000F8948091D9029091DA02A091DB02B09137
:1035D000DC024FBF821B930B089578941F920F92C9
:1035E0000FB60F9211248F939F93AF93BF93809147
:1035F000D9029091DA02A091DB02B091DC0201962F
:10360000A11DB11D8093D9029093DA02A093DB0231
:10361000B093DC02BF91AF919F918F910F900FBE3D
:103620000F901F90189587E797E790930108809374
:1036300000089AE088E10FB6F894A895809360009E
:103640000FBE90936000FFCF9AE088E10FB6F89428
:10365000A895809360000FBE90936000FFCF80918B
:10366000B50208959B019091E1029430F1F48F70BE
:103670008093E9008FEF9091E800815095FD06C09E
:1036800095ED9A95F1F700008111F5CF8091E80052
:1036900085FF0BC0BA01C90140E050E00E944A1DFD
:1036A0008091E8008E778093E800089543E050E031
:1036B000BC0182E00E94321B089546E050E0BC014C
:1036C00082E00E94321B0895CF93DF93EC0180913A
:1036D0001201811105C048E050E0BE0181E00BC03D
:1036E0008091B70287FF03C040E282E002C048E059
:1036F00081E050E0BE010E94321B80E2FE01A5E99C
:10370000B2E001900D928A95E1F7DF91CF91089593
:103710008091E002811109C00E94D51E0E94321FD3
:103720008091E20084608093E20008951092E002AC
:1037300008950E94831A08956091DD0281E061116D
:1037400001C080E00E946A1A0E948015089590913D
:10375000E10281E0943009F080E06091DD020E9496
:10376000701A0E9486150E94F2180E94070508959B
:1037700042E061EC81E00E944E1E42E261EC82E098
:103780000E944E1E9091E10281E0943009F080E0A9
:103790006091DD020E947A1A08958091E3028330DD
:1037A00009F461C030F4813071F0823009F49BC0BB
:1037B00008958A3009F487C08B3009F46CC08930D1
:1037C00009F0A9C020C08091E202813A09F0A3C0AB
:1037D0008091E800877F8093E8008091E6029091D5
:1037E000E702892B21F460E285E992E003C060E002
:1037F00080E090E070E00E948F1D8091E8008B7760
:103800008093E80008958091E202813209F083C03C
:103810008091E6029091E702029708F07CC08091C7
:10382000E800877F8093E8008091E80082FD05C072
:103830008091E1028111F8CF6EC02091F300809158
:10384000F20090E0922B029731F48091F1008130E8
:1038500011F0863021F48091F1008093B5028091BF
:10386000E8008B7754C08091E202813A09F053C09E
:103870008091E6029091E702892B09F04CC080917B
:10388000E800877F8093E8008091E80080FFFCCF0C
:103890008091120137C08091E2028132E1F580917E
:1038A000E6029091E702892BB1F58091E800877FCD
:1038B0008093E8000E94831E8091E40280931201AD
:1038C0000E940D0908958091E202813221F58091D4
:1038D000E800877F8093E8000E94831E8091E502C4
:1038E0008093B60208958091E202813AA1F480911A
:1038F000E800877F8093E8008091E80080FFFCCF9C
:103900008091B6028093F1008091E8008E778093D9
:10391000E8000E94831E089584B7877F84BF0FB696
:10392000F894A8958091600088618093600010925F
:1039300060000FBE90E080E80FB6F89480936100BD
:10394000909361000FBE0E947D1A08950E94D51EBB
:103950000E94321FE2EEF0E08081846080837894E0
:103960000E94BD2108958AE091E00E94ED1808951B
:103970008091E1028530A9F48091E102853079F4EB
:103980000E94B11A8091DF028823B1F30E94961A37
:10399000882391F30E94341D0E940D09EDCF0E94EF
:1039A000B81A089508959A014091E8025091E902E9
:1039B0000E94DB1C0895492F552743305105C9F05B
:1039C00060F44130510581F04230510509F044C0A6
:1039D0008BE390E040E455E043C041325105E1F013
:1039E0004232510549F138C082E190E04BE755E0A1
:1039F00037C099278130910549F028F0029761F589
:103A0000E8EEF4E005C0ECE3F5E002C0E2E3F5E047
:103A1000849190E0AF0124C06115710541F06130DF
:103A20007105D1F489E090E04BE655E019C089E0DA
:103A300090E042E555E014C06115710541F0613038
:103A4000710551F486EB90E04DE855E009C084E43F
:103A500090E043E456E004C080E090E040E050E0B5
:103A6000F90151834083089580E189BD82E189BDD8
:103A700009B400FEFDCF8091D8008F7D8093D800DF
:103A80008091E00082608093E0008091E00081FD01
:103A9000FCCF0895A0E0B0E0E0E5FDE10C94FC214E
:103AA000EC018B017A010E94A21E811133C0E11446
:103AB000F10439F0F70180819181081B190BC80FBF
:103AC000D91FC12CD12C0115110519F18091E800E5
:103AD00085FD16C08091E8008E778093E800E114A0
:103AE000F10449F0F70180819181C80ED91ED1827D
:103AF000C08285E00FC00E94A21E882321F30AC065
:103B000089918093F10001501109FFEFCF1ADF0A6C
:103B1000DACF80E0CDB7DEB7E8E00C941822209130
:103B2000E8023091E9022617370748F06115710560
:103B300039F42091E8002E772093E80001C0B90104
:103B4000FC0120E06115710579F18091E102882383
:103B5000F1F18530F1F18091E80083FD3CC0809166
:103B6000E80082FD2EC08091E80080FFEBCF20911D
:103B7000F3008091F20090E0922B6115710551F0F5
:103B80008830910538F421912093F100615071093A
:103B90000196F3CF21E0089709F020E08091E8003A
:103BA0008E778093E800CECF2111CFCF0AC08091CD
:103BB000E102882361F0853061F08091E80083FDA7
:103BC0000AC08091E80082FFF2CF80E0089582E091
:103BD000089583E0089581E008952091E8023091EE
:103BE000E9022617370748F06115710539F420916D
:103BF000E8002E772093E80001C0B901FC0120E025
:103C00006115710591F18091E102882309F440C0AA
:103C1000853009F43FC08091E80083FD3DC080916C
:103C2000E80082FD2FC08091E80080FFE9CF20915D
:103C3000F3008091F20090E0922B6115710559F02C
:103C40008830910540F424912093F1003196615021
:103C500071090196F2CF21E0089709F020E08091E8
:103C6000E8008E778093E800CBCF2111CCCF0AC03B
:103C70008091E102882361F0853061F08091E80055
:103C800083FD0AC08091E80082FFF2CF80E00895B2
:103C900082E0089583E0089581E00895982F973099
:103CA00068F59093E900981739F07091EC00209135
:103CB000ED005091F00003C0242F762F50E021FD3D
:103CC00002C09F5FECCF3091EB003E7F3093EB0062
:103CD0003091ED003D7F3093ED003091EB0031608D
:103CE0003093EB007093EC002093ED005093F000C4
:103CF0002091EE0027FDE5CF80E008958F7080933E
:103D0000E90081E008958091E20287FF11C080916F
:103D1000E80082FD05C08091E1028111F8CF11C059
:103D20008091E8008B770BC08091E102882349F0F5
:103D30008091E80080FFF8CF8091E8008E77809333
:103D4000E80008952091E4003091E50095E6409167
:103D5000EC00842F817040FF23C08091E80080FD3B
:103D60001DC08091E102882399F0853099F08091FF
:103D7000EB0085FD11C04091E4005091E50024174F
:103D8000350729F3915011F09A01E1CF84E00895AD
:103D900082E0089583E0089581E0089580E0089529
:103DA0004091E80042FFDDCF08950E94441F0E9429
:103DB0004C1FE0EEF0E0808181608083E8EDF0E070
:103DC00080818F77808319BCA7EDB0E08C918E7FC6
:103DD0008C9380818F7E80831092E00208950F93F0
:103DE0001F93CF93DF930E94441F0E944C1FC8ED86
:103DF000D0E088818F7788838881806888838881F4
:103E00008F7D888319BC1092E1021092DD0210921E
:103E1000DF021092DE0200EE10E0F80180818B7F5D
:103E2000808388818160888342E060E080E00E9436
:103E30004E1EE1EEF0E080818E7F8083E2EEF0E0C6
:103E4000808181608083808188608083F8018081A7
:103E50008E7F8083888180618883DF91CF911F91DD
:103E60000F910895E8EDF0E080818F7E8083E7ED8B
:103E7000F0E080818160808384E082BF81E0809374
:103E8000E0020E94EF1E0895E8EDF0E080818E7F51
:103E900080831092E20008951092DA001092E100FF
:103EA00008951F920F920FB60F9211242F933F93F4
:103EB0004F935F936F937F938F939F93AF93BF9332
:103EC000EF93FF938091E10082FF0BC08091E200AD
:103ED00082FF07C08091E1008B7F8093E1000E9408
:103EE000BC218091DA0080FF1FC08091D80080FF44
:103EF0001BC08091DA008E7F8093DA008091D90018
:103F000080FF0DC080E189BD82E189BD09B400FE5A
:103F1000FDCF81E08093E1020E94881B05C019BC9F
:103F20001092E1020E94961B8091E10080FF19C06F
:103F30008091E20080FF15C08091E2008E7F809327
:103F4000E2008091E20080618093E2008091D800DD
:103F500080628093D80019BC85E08093E1020E94C2
:103F60009C1B8091E10084FF30C08091E20084FFBF
:103F70002CC080E189BD82E189BD09B400FEFDCF7E
:103F80008091D8008F7D8093D8008091E1008F7E52
:103F90008093E1008091E2008F7E8093E200809127
:103FA000E20081608093E2008091DD02882311F0BD
:103FB00084E007C08091E30087FD02C081E001C07A
:103FC00083E08093E1020E94A71B8091E10083FFC0
:103FD00029C08091E20083FF25C08091E100877FA6
:103FE0008093E10082E08093E1021092DD028091F3
:103FF000E1008E7F8093E1008091E2008E7F8093CC
:10400000E2008091E20080618093E20042E060E0A3
:1040100080E00E944E1E8091F00088608093F00046
:104020000E94991BFF91EF91BF91AF919F918F914A
:104030007F916F915F914F913F912F910F900FBEA4
:104040000F901F9018951F920F920FB60F92112488
:104050002F933F934F935F936F937F938F939F9390
:10406000AF93BF93CF93DF93EF93FF93C091E9009A
:10407000CF708091EC00D82FD17080FDD0E81092E5
:10408000E9008091F000877F8093F00078940E948F
:1040900067201092E9008091F00088608093F00022
:1040A000CD2BCF70C093E900FF91EF91DF91CF91BD
:1040B000BF91AF919F918F917F916F915F914F9140
:1040C0003F912F910F900FBE0F901F901895AAE26D
:1040D000B0E0EDE6F0E20C940122E2EEF2E0809135
:1040E000F100819322E0EA3EF207C9F70E94CD1B5E
:1040F0008091E80083FF2EC18091E2029091E3025B
:10410000492F50E04A30510508F024C1FA01E65326
:10411000FF4F0C94EC21803821F0823809F01AC14D
:1041200008C08091DE029091DF02992389F08260BD
:104130000FC08091E6028F70873008F00BC180932A
:10414000E9008091EB0085FB882780F91092E90057
:104150009091E800977F9093E8008093F10010928F
:10416000F100D1C0282F2D7F09F0F4C0882319F069
:10417000823061F0EFC08091E402813009F0EAC042
:10418000933009F080E08093DF022EC08091E4023A
:1041900081112AC08091E6028F702FEF280F263000
:1041A00008F0D8C08093E9002091EB0020FF1CC0EC
:1041B000933021F48091EB00806214C09091EB0069
:1041C00090619093EB0021E030E0A90102C0440F20
:1041D000551F8A95E2F74093EA001092EA00809119
:1041E000EB0088608093EB001092E9008091E8007A
:1041F000877F8093E8000E94831EACC08111AAC013
:104200001091E4021F778091E3008078812B8093E6
:10421000E3008091E800877F8093E8000E94831E7E
:104220008091E80080FFFCCF8091E300806880935C
:10423000E300111102C082E001C083E08093E1023B
:1042400089C08058823008F085C08091E402909146
:10425000E5028C3D53E0950779F583E08A838AE295
:1042600089834FB7F894DE01139620E03EE051E2D7
:10427000E32FF0E050935700E49120FF03C0E29554
:10428000EF703F5FEF708E2F90E0EA3010F0C7962E
:1042900001C0C0968D939D932F5F243149F74FBF86
:1042A0008091E800877F8093E8006AE270E0CE01A9
:1042B00001960E948F1D16C06091E6027091E70280
:1042C000AE014F5F5F4F0E94D31CBC01892B09F4E4
:1042D00041C09091E800977F9093E80089819A818E
:1042E0000E94ED1D8091E8008B778093E80032C03A
:1042F000803881F58091E800877F8093E800809185
:10430000DD028093F1008091E8008E7772CF8111F9
:1043100021C08091E4029091E50299270297D4F49C
:104320008091E800877F8093E8008091E402809389
:10433000DD020E94831E8091DD02811106C0809102
:10434000E30087FD02C081E001C084E08093E102C8
:104350000E94B81B8091E80083FF0AC08091E800AA
:10436000877F8093E8008091EB0080628093EB0070
:10437000AA96E3E00C941D220895CF938091E10268
:104380008823A1F0C091E900CF709091EC00892FB3
:10439000817090FD80E8C82B1092E9008091E800C0
:1043A00083FD0E946720CF70C093E900CF910895EC
:1043B00097FB072E16F4009407D077FD09D00E94D2
:1043C000292207FC05D03EF4909581959F4F0895D2
:1043D000709561957F4F0895EE0FFF1F0590F49142
:1043E000E02D09942F923F924F925F926F927F92AD
:1043F0008F929F92AF92BF92CF92DF92EF92FF92F5
:104400000F931F93CF93DF93CDB7DEB7CA1BDB0BA0
:104410000FB6F894DEBF0FBECDBF09942A88398845
:1044200048885F846E847D848C849B84AA84B9844C
:10443000C884DF80EE80FD800C811B81AA81B98158
:10444000CE0FD11D0FB6F894DEBF0FBECDBFED016C
:104450000895AA1BBB1B51E107C0AA1FBB1FA617CB
:10446000B70710F0A61BB70B881F991F5A95A9F71D
:1044700080959095BC01CD010895FB01DC0104C03D
:104480008D910190801921F441505040C8F7881B4C
:10449000990B0895FB01DC0102C001900D9241507F
:1044A0005040D8F70895F999FECF92BD81BDF89A92
:1044B000992780B50895A8E1B0E042E050E00C945F
:1044C0009722DC01A40FB51F4150504048F0CB01AA
:1044D000840F951F2E910E94722241505040D0F7B8
:1044E0000895262FF999FECF92BD81BDF89A0197C4
:1044F00000B4021639F01FBA20BD0FB6F894FA9A2C
:10450000F99A0FBE08950396272F0E9472220E94E7
:104510007122252F0E947222242F0C947222019660
:10452000272F0E9472220C947122DC01CB01FC0126
:10453000F999FECF06C0F2BDE1BDF89A319600B4FC
:0E4540000D9241505040B8F70895F894FFCF07
:10454E003602010150010A0414062F1B641B5D1B69
:10455E00561B01E200E900EA00B500B600B700CD37
:10456E00008301CC008A01920194012102230224CE
:10457E00022502260227022A02B300B4006F007041
:10458E00009F01CB019F02A002818283E200E9001D
:10459E00EA00B500B600B700CD008301CC008A0159
:1045AE0092019401210223022402250226022702EF
:1045BE002A02B300B4006F0070009F01CB019F026E
:0645CE00A00281828300BF
:00000001FF
